{
  "address": "0x0A413b9EbB532FaFd400525fCE7d34bcC0E87d44",
  "abi": [
    {
      "inputs": [
        {
          "internalType": "address",
          "name": "_feeAccount",
          "type": "address"
        },
        {
          "internalType": "uint256",
          "name": "_feePercent",
          "type": "uint256"
        }
      ],
      "stateMutability": "nonpayable",
      "type": "constructor"
    },
    {
      "anonymous": false,
      "inputs": [
        {
          "indexed": false,
          "internalType": "uint256",
          "name": "id",
          "type": "uint256"
        },
        {
          "indexed": false,
          "internalType": "address",
          "name": "user",
          "type": "address"
        }
      ],
      "name": "CancelOrderEvent",
      "type": "event"
    },
    {
      "anonymous": false,
      "inputs": [
        {
          "indexed": false,
          "internalType": "address",
          "name": "token",
          "type": "address"
        },
        {
          "indexed": false,
          "internalType": "address",
          "name": "user",
          "type": "address"
        },
        {
          "indexed": false,
          "internalType": "uint256",
          "name": "amount",
          "type": "uint256"
        },
        {
          "indexed": false,
          "internalType": "uint256",
          "name": "balance",
          "type": "uint256"
        }
      ],
      "name": "DepositEvent",
      "type": "event"
    },
    {
      "anonymous": false,
      "inputs": [
        {
          "indexed": false,
          "internalType": "uint256",
          "name": "id",
          "type": "uint256"
        },
        {
          "indexed": false,
          "internalType": "address",
          "name": "user",
          "type": "address"
        },
        {
          "indexed": false,
          "internalType": "address",
          "name": "tokenGet",
          "type": "address"
        },
        {
          "indexed": false,
          "internalType": "uint256",
          "name": "amountGet",
          "type": "uint256"
        },
        {
          "indexed": false,
          "internalType": "address",
          "name": "tokenGive",
          "type": "address"
        },
        {
          "indexed": false,
          "internalType": "uint256",
          "name": "amountGive",
          "type": "uint256"
        },
        {
          "indexed": false,
          "internalType": "uint256",
          "name": "timestamp",
          "type": "uint256"
        }
      ],
      "name": "MakeOrderEvent",
      "type": "event"
    },
    {
      "anonymous": false,
      "inputs": [
        {
          "indexed": true,
          "internalType": "address",
          "name": "previousOwner",
          "type": "address"
        },
        {
          "indexed": true,
          "internalType": "address",
          "name": "newOwner",
          "type": "address"
        }
      ],
      "name": "OwnershipTransferred",
      "type": "event"
    },
    {
      "anonymous": false,
      "inputs": [
        {
          "indexed": false,
          "internalType": "uint256",
          "name": "id",
          "type": "uint256"
        },
        {
          "indexed": false,
          "internalType": "address",
          "name": "trader",
          "type": "address"
        },
        {
          "indexed": false,
          "internalType": "address",
          "name": "orderUser",
          "type": "address"
        },
        {
          "indexed": false,
          "internalType": "address",
          "name": "tokenGet",
          "type": "address"
        },
        {
          "indexed": false,
          "internalType": "uint256",
          "name": "amountGet",
          "type": "uint256"
        },
        {
          "indexed": false,
          "internalType": "address",
          "name": "tokenGive",
          "type": "address"
        },
        {
          "indexed": false,
          "internalType": "uint256",
          "name": "amountGive",
          "type": "uint256"
        },
        {
          "indexed": false,
          "internalType": "uint256",
          "name": "timestamp",
          "type": "uint256"
        }
      ],
      "name": "TradeEvent",
      "type": "event"
    },
    {
      "anonymous": false,
      "inputs": [
        {
          "indexed": false,
          "internalType": "address",
          "name": "token",
          "type": "address"
        },
        {
          "indexed": false,
          "internalType": "address",
          "name": "user",
          "type": "address"
        },
        {
          "indexed": false,
          "internalType": "uint256",
          "name": "amount",
          "type": "uint256"
        },
        {
          "indexed": false,
          "internalType": "uint256",
          "name": "balance",
          "type": "uint256"
        }
      ],
      "name": "WithdrawalEvent",
      "type": "event"
    },
    {
      "stateMutability": "nonpayable",
      "type": "fallback"
    },
    {
      "inputs": [
        {
          "internalType": "address",
          "name": "_token",
          "type": "address"
        },
        {
          "internalType": "address",
          "name": "_user",
          "type": "address"
        }
      ],
      "name": "balanceOf",
      "outputs": [
        {
          "internalType": "uint256",
          "name": "balance",
          "type": "uint256"
        }
      ],
      "stateMutability": "view",
      "type": "function"
    },
    {
      "inputs": [
        {
          "internalType": "address",
          "name": "",
          "type": "address"
        },
        {
          "internalType": "address",
          "name": "",
          "type": "address"
        }
      ],
      "name": "balances",
      "outputs": [
        {
          "internalType": "uint256",
          "name": "",
          "type": "uint256"
        }
      ],
      "stateMutability": "view",
      "type": "function"
    },
    {
      "inputs": [
        {
          "internalType": "uint256",
          "name": "_orderId",
          "type": "uint256"
        }
      ],
      "name": "cancelOrder",
      "outputs": [],
      "stateMutability": "nonpayable",
      "type": "function"
    },
    {
      "inputs": [],
      "name": "chargeFee",
      "outputs": [],
      "stateMutability": "nonpayable",
      "type": "function"
    },
    {
      "inputs": [],
      "name": "depositEther",
      "outputs": [],
      "stateMutability": "payable",
      "type": "function"
    },
    {
      "inputs": [
        {
          "internalType": "address",
          "name": "_token",
          "type": "address"
        },
        {
          "internalType": "uint256",
          "name": "_amount",
          "type": "uint256"
        }
      ],
      "name": "depositToken",
      "outputs": [],
      "stateMutability": "nonpayable",
      "type": "function"
    },
    {
      "inputs": [],
      "name": "feeAccount",
      "outputs": [
        {
          "internalType": "address",
          "name": "",
          "type": "address"
        }
      ],
      "stateMutability": "view",
      "type": "function"
    },
    {
      "inputs": [],
      "name": "feePercent",
      "outputs": [
        {
          "internalType": "uint256",
          "name": "",
          "type": "uint256"
        }
      ],
      "stateMutability": "view",
      "type": "function"
    },
    {
      "inputs": [
        {
          "internalType": "uint256",
          "name": "_orderId",
          "type": "uint256"
        }
      ],
      "name": "fillOrder",
      "outputs": [],
      "stateMutability": "nonpayable",
      "type": "function"
    },
    {
      "inputs": [
        {
          "internalType": "address",
          "name": "_tokenGet",
          "type": "address"
        },
        {
          "internalType": "uint256",
          "name": "_amountGet",
          "type": "uint256"
        },
        {
          "internalType": "address",
          "name": "_tokenGive",
          "type": "address"
        },
        {
          "internalType": "uint256",
          "name": "_amountGive",
          "type": "uint256"
        }
      ],
      "name": "makeOrder",
      "outputs": [],
      "stateMutability": "nonpayable",
      "type": "function"
    },
    {
      "inputs": [],
      "name": "orderCount",
      "outputs": [
        {
          "internalType": "uint256",
          "name": "",
          "type": "uint256"
        }
      ],
      "stateMutability": "view",
      "type": "function"
    },
    {
      "inputs": [
        {
          "internalType": "uint256",
          "name": "",
          "type": "uint256"
        }
      ],
      "name": "orders",
      "outputs": [
        {
          "internalType": "uint256",
          "name": "id",
          "type": "uint256"
        },
        {
          "internalType": "address",
          "name": "user",
          "type": "address"
        },
        {
          "internalType": "address",
          "name": "tokenGet",
          "type": "address"
        },
        {
          "internalType": "uint256",
          "name": "amountGet",
          "type": "uint256"
        },
        {
          "internalType": "address",
          "name": "tokenGive",
          "type": "address"
        },
        {
          "internalType": "uint256",
          "name": "amountGive",
          "type": "uint256"
        },
        {
          "internalType": "uint256",
          "name": "timestamp",
          "type": "uint256"
        },
        {
          "internalType": "bool",
          "name": "isCancelled",
          "type": "bool"
        },
        {
          "internalType": "bool",
          "name": "isFilled",
          "type": "bool"
        }
      ],
      "stateMutability": "view",
      "type": "function"
    },
    {
      "inputs": [],
      "name": "owner",
      "outputs": [
        {
          "internalType": "address",
          "name": "",
          "type": "address"
        }
      ],
      "stateMutability": "view",
      "type": "function"
    },
    {
      "inputs": [],
      "name": "renounceOwnership",
      "outputs": [],
      "stateMutability": "nonpayable",
      "type": "function"
    },
    {
      "inputs": [],
      "name": "traderCount",
      "outputs": [
        {
          "internalType": "uint256",
          "name": "",
          "type": "uint256"
        }
      ],
      "stateMutability": "view",
      "type": "function"
    },
    {
      "inputs": [
        {
          "internalType": "address",
          "name": "newOwner",
          "type": "address"
        }
      ],
      "name": "transferOwnership",
      "outputs": [],
      "stateMutability": "nonpayable",
      "type": "function"
    },
    {
      "inputs": [
        {
          "internalType": "uint256",
          "name": "_amount",
          "type": "uint256"
        }
      ],
      "name": "withdrawEther",
      "outputs": [],
      "stateMutability": "nonpayable",
      "type": "function"
    },
    {
      "inputs": [
        {
          "internalType": "address",
          "name": "_token",
          "type": "address"
        },
        {
          "internalType": "uint256",
          "name": "_amount",
          "type": "uint256"
        }
      ],
      "name": "withdrawToken",
      "outputs": [],
      "stateMutability": "nonpayable",
      "type": "function"
    }
  ],
  "transactionHash": "0x5aba2030d9ca869fb62da45119c1b488cad824af87543a67962586b0938b713b",
  "args": [
    "0x6F8Ba40A49A17805eB71e36Cc3c9f7ee38159bF0",
    10
  ],
  "numDeployments": 1,
  "solcInputHash": "d2d8f26af0f926edcefb0fc63921b73a",
  "bytecode": "0x608060405234801561001057600080fd5b506040516116f93803806116f983398101604081905261002f916100b1565b61003833610061565b600180546001600160a01b0319166001600160a01b0393909316929092179091556002556100e9565b600080546001600160a01b038381166001600160a01b0319831681178455604051919092169283917f8be0079c531659141344cd1fd0a4f28419497f9722a3daafe3b4186f6b6457e09190a35050565b600080604083850312156100c3578182fd5b82516001600160a01b03811681146100d9578283fd5b6020939093015192949293505050565b611601806100f86000396000f3fe6080604052600436106101095760003560e01c80637fd6f15c116100955780639e281a98116100645780639e281a9814610294578063a85c38ef146102b4578063c23f001f14610386578063f2fde38b146103be578063f7888aec146103de57610109565b80637fd6f15c146102385780638da5cb5b1461024e57806398ea5fca1461026c5780639a5c90aa1461027457610109565b806365e17c9d116100dc57806365e17c9d146101a657806367b830ad146101de57806369dc6765146101fe578063715018a614610214578063744c8c091461022957610109565b80632453ffa81461011b578063338b5dea146101445780633bed33ce14610166578063514fcac714610186575b34801561011557600080fd5b50600080fd5b34801561012757600080fd5b5061013160055481565b6040519081526020015b60405180910390f35b34801561015057600080fd5b5061016461015f366004611423565b610424565b005b34801561017257600080fd5b506101646101813660046114af565b610624565b34801561019257600080fd5b506101646101a13660046114af565b610786565b3480156101b257600080fd5b506001546101c6906001600160a01b031681565b6040516001600160a01b03909116815260200161013b565b3480156101ea57600080fd5b506101646101f93660046114af565b610918565b34801561020a57600080fd5b5061013160045481565b34801561022057600080fd5b50610164610959565b34801561023557600080fd5b50005b34801561024457600080fd5b5061013160025481565b34801561025a57600080fd5b506000546001600160a01b03166101c6565b6101646109bf565b34801561028057600080fd5b5061016461028f36600461144c565b610a6b565b3480156102a057600080fd5b506101646102af366004611423565b610c7a565b3480156102c057600080fd5b5061032e6102cf3660046114af565b60066020819052600091825260409091208054600182015460028301546003840154600485015460058601549686015460079096015494966001600160a01b039485169693851695929490911692909160ff8082169161010090041689565b60408051998a526001600160a01b0398891660208b015296881696890196909652606088019490945294909116608086015260a085015260c084019290925290151560e083015215156101008201526101200161013b565b34801561039257600080fd5b506101316103a13660046113f1565b600360209081526000928352604080842090915290825290205481565b3480156103ca57600080fd5b506101646103d93660046113d0565b610ef3565b3480156103ea57600080fd5b506101316103f93660046113f1565b6001600160a01b03918216600090815260036020908152604080832093909416825291909152205490565b6001600160a01b0382166104955760405162461bcd60e51b815260206004820152602d60248201527f4e6f2065746865722073686f756c642062652073656e7420776974682074686960448201526c39903a3930b739b0b1ba34b7b760991b60648201526084015b60405180910390fd5b600081116104b55760405162461bcd60e51b815260040161048c906114f0565b6040516323b872dd60e01b8152336004820152306024820152604481018290526001600160a01b038316906323b872dd90606401602060405180830381600087803b15801561050357600080fd5b505af1158015610517573d6000803e3d6000fd5b505050506040513d601f19601f8201168201806040525081019061053b919061148f565b6105875760405162461bcd60e51b815260206004820152601a60248201527f4465706f736974696e67206f6620746f6b656e206661696c6564000000000000604482015260640161048c565b6001600160a01b0382166000908152600360209081526040808320338452909152812080548392906105ba908490611527565b90915550506001600160a01b0382166000908152600360209081526040808320338085529252918290205491517f0c7228d06e1226466547fa176f5a08288dc01e34f4dcef82db7c0065e1ba590f92610618928692909186916114c7565b60405180910390a15050565b600081116106445760405162461bcd60e51b815260040161048c906114f0565b3360009081526000805160206115ac83398151915260205260409020548111156106cb5760405162461bcd60e51b815260206004820152603260248201527f416d6f756e74206d757374206265206c657373207468616e206f7220657175616044820152716c20746f2065746865722062616c616e636560701b606482015260840161048c565b3360009081526000805160206115ac8339815191526020526040812080548392906106f790849061157e565b9091555050604051339082156108fc029083906000818181858888f19350505050158015610729573d6000803e3d6000fd5b503360008181526000805160206115ac83398151915260205260408082205490517f40baabe558cca1477e79adec701351a697bbdbf7f26537d954920d4d187f63689361077b939290918691906114c7565b60405180910390a150565b6000818152600660205260409020600101546001600160a01b031633146107ef5760405162461bcd60e51b815260206004820152601a60248201527f4f6e6c7920757365722063616e2063616e63656c206f72646572000000000000604482015260640161048c565b60008181526006602052604090206007015460ff16156108515760405162461bcd60e51b815260206004820181905260248201527f4f726465722068617320616c7265616479206265656e2063616e63656c6c6564604482015260640161048c565b600081815260066020526040902060070154610100900460ff16156108b85760405162461bcd60e51b815260206004820152601d60248201527f4f726465722068617320616c7265616479206265656e2066696c6c6564000000604482015260640161048c565b60008181526006602052604090819020600701805460ff19166001179055517faf3fea0c4c0edd65f790b2e1cabb696d6b50246ce8a671a9975b701a6bf11c719061077b90839033909182526001600160a01b0316602082015260400190565b60008181526006602052604090208054600282015460038301546004840154600585015461095594936001600160a01b0390811693921690610fbe565b5050565b6000546001600160a01b031633146109b35760405162461bcd60e51b815260206004820181905260248201527f4f776e61626c653a2063616c6c6572206973206e6f7420746865206f776e6572604482015260640161048c565b6109bd6000611364565b565b600034116109df5760405162461bcd60e51b815260040161048c906114f0565b3360009081526000805160206115ac833981519152602052604081208054349290610a0b908490611527565b90915550503360008181526000805160206115ac83398151915260205260408082205490517f0c7228d06e1226466547fa176f5a08288dc01e34f4dcef82db7c0065e1ba590f93610a61939290913491906114c7565b60405180910390a1565b600160056000828254610a7e9190611527565b9250508190555060006040518061012001604052806005548152602001336001600160a01b03168152602001866001600160a01b03168152602001858152602001846001600160a01b03168152602001838152602001428152602001600015158152602001600015158152509050806006600060055481526020019081526020016000206000820151816000015560208201518160010160006101000a8154816001600160a01b0302191690836001600160a01b0316021790555060408201518160020160006101000a8154816001600160a01b0302191690836001600160a01b031602179055506060820151816003015560808201518160040160006101000a8154816001600160a01b0302191690836001600160a01b0316021790555060a0820151816005015560c0820151816006015560e08201518160070160006101000a81548160ff0219169083151502179055506101008201518160070160016101000a81548160ff0219169083151502179055509050507f6de523cfe1eae24c1a27d6623926671ca206e819584035aec9a3524ecd766c5f600554338787878742604051610c6b97969594939291909687526001600160a01b03958616602088015293851660408701526060860192909252909216608084015260a083019190915260c082015260e00190565b60405180910390a15050505050565b60008111610c9a5760405162461bcd60e51b815260040161048c906114f0565b6001600160a01b038216610d085760405162461bcd60e51b815260206004820152602f60248201527f4e6f2065746865722073686f756c642077697468647261776e2077697468207460448201526e3434b9903a3930b739b0b1ba34b7b760891b606482015260840161048c565b6001600160a01b0382166000908152600360209081526040808320338452909152902054811115610d965760405162461bcd60e51b815260206004820152603260248201527f416d6f756e74206d757374206265206c657373207468616e206f7220657175616044820152716c20746f20746f6b656e2062616c616e636560701b606482015260840161048c565b6001600160a01b038216600090815260036020908152604080832033845290915281208054839290610dc990849061157e565b909155505060405163a9059cbb60e01b8152336004820152602481018290526001600160a01b0383169063a9059cbb90604401602060405180830381600087803b158015610e1657600080fd5b505af1158015610e2a573d6000803e3d6000fd5b505050506040513d601f19601f82011682018060405250810190610e4e919061148f565b610e9a5760405162461bcd60e51b815260206004820152601b60248201527f5769746864726177696e67206f6620746f6b656e206661696c65640000000000604482015260640161048c565b6001600160a01b0382166000908152600360209081526040808320338085529252918290205491517f40baabe558cca1477e79adec701351a697bbdbf7f26537d954920d4d187f636892610618928692909186916114c7565b6000546001600160a01b03163314610f4d5760405162461bcd60e51b815260206004820181905260248201527f4f776e61626c653a2063616c6c6572206973206e6f7420746865206f776e6572604482015260640161048c565b6001600160a01b038116610fb25760405162461bcd60e51b815260206004820152602660248201527f4f776e61626c653a206e6577206f776e657220697320746865207a65726f206160448201526564647265737360d01b606482015260840161048c565b610fbb81611364565b50565b6000858152600660205260409020600781015460ff16156110215760405162461bcd60e51b815260206004820152601860248201527f4f7264657220686173206265656e2063616e63656c6c65640000000000000000604482015260640161048c565b6007810154610100900460ff16156110735760405162461bcd60e51b815260206004820152601560248201527413dc99195c881a185cc81899595b88199a5b1b1959605a1b604482015260640161048c565b60018101546001600160a01b03868116600090815260036020908152604080832093909416808352929052919091205433908611156110ff5760405162461bcd60e51b815260206004820152602260248201527f496e73756666696369656e742066756e64732066726f6d206f7264657220757360448201526132b960f11b606482015260840161048c565b6001600160a01b038086166000908152600360209081526040808320938516835292905220548411156111745760405162461bcd60e51b815260206004820152601e60248201527f496e73756666696369656e742066756e64732066726f6d207472616465720000604482015260640161048c565b6000606460025488611186919061155f565b611190919061153f565b6001600160a01b03808a1660009081526003602090815260408083206001549094168352929052908120805492935083929091906111cf908490611527565b90915550506001600160a01b0380871660009081526003602090815260408083209386168352929052908120805487929061120b90849061157e565b90915550506001600160a01b03808716600090815260036020908152604080832093871683529290529081208054879290611247908490611527565b90915550506001600160a01b0380891660009081526003602090815260408083209387168352929052908120805489929061128390849061157e565b909155506112939050818861157e565b6001600160a01b03808a166000908152600360209081526040808320938716835292905290812080549091906112ca908490611527565b925050819055506001600460008282546112e49190611527565b9091555050600454604080519182526001600160a01b038481166020840152858116838301528a81166060840152608083018a9052881660a083015260c082018790524260e0830152517fc30713f6301d3a221c94de6fbd31fae539a54b08ba67ab184517c4579b7303c8918190036101000190a1505050505050505050565b600080546001600160a01b038381166001600160a01b0319831681178455604051919092169283917f8be0079c531659141344cd1fd0a4f28419497f9722a3daafe3b4186f6b6457e09190a35050565b80356001600160a01b03811681146113cb57600080fd5b919050565b6000602082840312156113e1578081fd5b6113ea826113b4565b9392505050565b60008060408385031215611403578081fd5b61140c836113b4565b915061141a602084016113b4565b90509250929050565b60008060408385031215611435578182fd5b61143e836113b4565b946020939093013593505050565b60008060008060808587031215611461578182fd5b61146a856113b4565b93506020850135925061147f604086016113b4565b9396929550929360600135925050565b6000602082840312156114a0578081fd5b815180151581146113ea578182fd5b6000602082840312156114c0578081fd5b5035919050565b6001600160a01b0394851681529290931660208301526040820152606081019190915260800190565b6020808252601d908201527f416d6f756e74206d7573742062652067726561746572207468616e2030000000604082015260600190565b6000821982111561153a5761153a611595565b500190565b60008261155a57634e487b7160e01b81526012600452602481fd5b500490565b600081600019048311821515161561157957611579611595565b500290565b60008282101561159057611590611595565b500390565b634e487b7160e01b600052601160045260246000fdfe3617319a054d772f909f7c479a2cebe5066e836a939412e32403c99029b92effa2646970667358221220275d04efb2076b1729d2e8968bb550c37f2e3c8c7342692479ad882449d0cd8764736f6c63430008040033"
}