{
  "address": "0x56dD898f846b5aeB93C754481E58Bb2661567dED",
  "abi": [
    {
      "inputs": [
        {
          "internalType": "uint256",
          "name": "_entranceFee",
          "type": "uint256"
        },
        {
          "internalType": "uint256",
          "name": "_interval",
          "type": "uint256"
        },
        {
          "internalType": "address",
          "name": "vrfCoordinatorV2",
          "type": "address"
        },
        {
          "internalType": "bytes32",
          "name": "_gasLane",
          "type": "bytes32"
        },
        {
          "internalType": "uint64",
          "name": "_subscriptionId",
          "type": "uint64"
        },
        {
          "internalType": "uint32",
          "name": "_callbackGasLimit",
          "type": "uint32"
        }
      ],
      "stateMutability": "nonpayable",
      "type": "constructor"
    },
    {
      "inputs": [
        {
          "internalType": "address",
          "name": "have",
          "type": "address"
        },
        {
          "internalType": "address",
          "name": "want",
          "type": "address"
        }
      ],
      "name": "OnlyCoordinatorCanFulfill",
      "type": "error"
    },
    {
      "inputs": [],
      "name": "Raffle__NotEnoughEthEntered",
      "type": "error"
    },
    {
      "inputs": [],
      "name": "Raffle__RaffleNotOpen",
      "type": "error"
    },
    {
      "inputs": [],
      "name": "Raffle__TransferFailed",
      "type": "error"
    },
    {
      "inputs": [
        {
          "internalType": "uint256",
          "name": "",
          "type": "uint256"
        },
        {
          "internalType": "uint256",
          "name": "",
          "type": "uint256"
        },
        {
          "internalType": "uint256",
          "name": "",
          "type": "uint256"
        }
      ],
      "name": "Raffle__UpkeepNotNeeded",
      "type": "error"
    },
    {
      "anonymous": false,
      "inputs": [
        {
          "indexed": true,
          "internalType": "address",
          "name": "player",
          "type": "address"
        },
        {
          "indexed": false,
          "internalType": "uint256",
          "name": "amount",
          "type": "uint256"
        }
      ],
      "name": "Raffle__PlayerEntered",
      "type": "event"
    },
    {
      "anonymous": false,
      "inputs": [
        {
          "indexed": false,
          "internalType": "uint256",
          "name": "requestId",
          "type": "uint256"
        }
      ],
      "name": "Raffle__RaffleWinnerRequested",
      "type": "event"
    },
    {
      "anonymous": false,
      "inputs": [
        {
          "indexed": false,
          "internalType": "uint256",
          "name": "raffleId",
          "type": "uint256"
        },
        {
          "indexed": true,
          "internalType": "address",
          "name": "player",
          "type": "address"
        },
        {
          "indexed": false,
          "internalType": "uint256",
          "name": "amount",
          "type": "uint256"
        }
      ],
      "name": "Raffle__WinnerPicked",
      "type": "event"
    },
    {
      "inputs": [
        {
          "internalType": "bytes",
          "name": "",
          "type": "bytes"
        }
      ],
      "name": "checkUpkeep",
      "outputs": [
        {
          "internalType": "bool",
          "name": "upkeepNeeded",
          "type": "bool"
        },
        {
          "internalType": "bytes",
          "name": "",
          "type": "bytes"
        }
      ],
      "stateMutability": "view",
      "type": "function"
    },
    {
      "inputs": [],
      "name": "enterRaffle",
      "outputs": [],
      "stateMutability": "payable",
      "type": "function"
    },
    {
      "inputs": [],
      "name": "getCurrentRaffleId",
      "outputs": [
        {
          "internalType": "uint256",
          "name": "",
          "type": "uint256"
        }
      ],
      "stateMutability": "view",
      "type": "function"
    },
    {
      "inputs": [],
      "name": "getEntranceFee",
      "outputs": [
        {
          "internalType": "uint256",
          "name": "",
          "type": "uint256"
        }
      ],
      "stateMutability": "view",
      "type": "function"
    },
    {
      "inputs": [],
      "name": "getInterval",
      "outputs": [
        {
          "internalType": "uint256",
          "name": "",
          "type": "uint256"
        }
      ],
      "stateMutability": "view",
      "type": "function"
    },
    {
      "inputs": [],
      "name": "getLatestTimestamp",
      "outputs": [
        {
          "internalType": "uint256",
          "name": "",
          "type": "uint256"
        }
      ],
      "stateMutability": "view",
      "type": "function"
    },
    {
      "inputs": [],
      "name": "getNumberOfPlayers",
      "outputs": [
        {
          "internalType": "uint256",
          "name": "",
          "type": "uint256"
        }
      ],
      "stateMutability": "view",
      "type": "function"
    },
    {
      "inputs": [
        {
          "internalType": "uint256",
          "name": "playerId",
          "type": "uint256"
        }
      ],
      "name": "getPlayer",
      "outputs": [
        {
          "internalType": "address payable",
          "name": "",
          "type": "address"
        }
      ],
      "stateMutability": "view",
      "type": "function"
    },
    {
      "inputs": [],
      "name": "getPlayers",
      "outputs": [
        {
          "internalType": "address payable[]",
          "name": "",
          "type": "address[]"
        }
      ],
      "stateMutability": "view",
      "type": "function"
    },
    {
      "inputs": [],
      "name": "getRaffleState",
      "outputs": [
        {
          "internalType": "uint256",
          "name": "",
          "type": "uint256"
        }
      ],
      "stateMutability": "view",
      "type": "function"
    },
    {
      "inputs": [],
      "name": "getRecentWinner",
      "outputs": [
        {
          "internalType": "address payable",
          "name": "",
          "type": "address"
        }
      ],
      "stateMutability": "view",
      "type": "function"
    },
    {
      "inputs": [],
      "name": "getRequestConfirmations",
      "outputs": [
        {
          "internalType": "uint16",
          "name": "",
          "type": "uint16"
        }
      ],
      "stateMutability": "pure",
      "type": "function"
    },
    {
      "inputs": [
        {
          "internalType": "bytes",
          "name": "",
          "type": "bytes"
        }
      ],
      "name": "performUpkeep",
      "outputs": [],
      "stateMutability": "nonpayable",
      "type": "function"
    },
    {
      "inputs": [
        {
          "internalType": "uint256",
          "name": "requestId",
          "type": "uint256"
        },
        {
          "internalType": "uint256[]",
          "name": "randomWords",
          "type": "uint256[]"
        }
      ],
      "name": "rawFulfillRandomWords",
      "outputs": [],
      "stateMutability": "nonpayable",
      "type": "function"
    }
  ],
  "transactionHash": "0x3f5cc5ba9bf5555a1d216291d865b760c6a1ccf8a4b67a7d30437b88a0bdcbaa",
  "args": [
    "100000000000000000",
    "30",
    "0x6168499c0cFfCaCD319c818142124B7A15E857ab",
    "0xd89b2bf150e3b9e13446986e571fb9cab24b13cea0a43ea20a6049a85cc807cc",
    "6926",
    "500000"
  ],
  "numDeployments": 1,
  "solcInputHash": "dee023ee240dc5197d4c602275cad2e7",
  "bytecode": "0x6101606040526000600160006101000a81548160ff021916908360018111156200002e576200002d6200015b565b5b02179055503480156200004057600080fd5b5060405162001a6b38038062001a6b8339818101604052810190620000669190620002f0565b838073ffffffffffffffffffffffffffffffffffffffff1660808173ffffffffffffffffffffffffffffffffffffffff1681525050508560a081815250508460c0818152505042600481905550620000ca60006200014560201b620009d51760201c565b8373ffffffffffffffffffffffffffffffffffffffff1660e08173ffffffffffffffffffffffffffffffffffffffff16815250508261010081815250508167ffffffffffffffff166101208167ffffffffffffffff16815250508063ffffffff166101408163ffffffff16815250505050505050506200038c565b6001816000016000828254019250508190555050565b7f4e487b7100000000000000000000000000000000000000000000000000000000600052602160045260246000fd5b600080fd5b6000819050919050565b620001a4816200018f565b8114620001b057600080fd5b50565b600081519050620001c48162000199565b92915050565b600073ffffffffffffffffffffffffffffffffffffffff82169050919050565b6000620001f782620001ca565b9050919050565b6200020981620001ea565b81146200021557600080fd5b50565b6000815190506200022981620001fe565b92915050565b6000819050919050565b62000244816200022f565b81146200025057600080fd5b50565b600081519050620002648162000239565b92915050565b600067ffffffffffffffff82169050919050565b62000289816200026a565b81146200029557600080fd5b50565b600081519050620002a9816200027e565b92915050565b600063ffffffff82169050919050565b620002ca81620002af565b8114620002d657600080fd5b50565b600081519050620002ea81620002bf565b92915050565b60008060008060008060c0878903121562000310576200030f6200018a565b5b60006200032089828a01620001b3565b96505060206200033389828a01620001b3565b95505060406200034689828a0162000218565b94505060606200035989828a0162000253565b93505060806200036c89828a0162000298565b92505060a06200037f89828a01620002d9565b9150509295509295509295565b60805160a05160c05160e05161010051610120516101405161166f620003fc60003960006106fe015260006106db015260006106ba0152600061067e0152600081816108450152610952015260008181610340015261044f01526000818161038f01526103e3015261166f6000f3fe6080604052600436106100dd5760003560e01c80636e04ff0d1161007f57806391ad27b41161005957806391ad27b41461027e578063e55ae4e8146102a9578063f43b52cb146102e6578063fd6673f514610311576100dd565b80636e04ff0d146101ea578063804b96ba146102285780638b5b9ccc14610253576100dd565b80632cfcc539116100bb5780632cfcc539146101615780634585e33b1461016b578063473f1ddc146101945780635f1b0fd8146101bf576100dd565b806309bc33a7146100e2578063115cbaf51461010d5780631fe543e314610138575b600080fd5b3480156100ee57600080fd5b506100f761033c565b6040516101049190610d0e565b60405180910390f35b34801561011957600080fd5b50610122610364565b60405161012f9190610d0e565b60405180910390f35b34801561014457600080fd5b5061015f600480360381019061015a9190610ec2565b61038d565b005b61016961044d565b005b34801561017757600080fd5b50610192600480360381019061018d9190610f79565b6105c7565b005b3480156101a057600080fd5b506101a96107d0565b6040516101b69190611007565b60405180910390f35b3480156101cb57600080fd5b506101d46107fa565b6040516101e1919061103f565b60405180910390f35b3480156101f657600080fd5b50610211600480360381019061020c919061110f565b610803565b60405161021f9291906111fb565b60405180910390f35b34801561023457600080fd5b5061023d6108af565b60405161024a9190610d0e565b60405180910390f35b34801561025f57600080fd5b506102686108c0565b60405161027591906112e9565b60405180910390f35b34801561028a57600080fd5b5061029361094e565b6040516102a09190610d0e565b60405180910390f35b3480156102b557600080fd5b506102d060048036038101906102cb919061130b565b610976565b6040516102dd9190611007565b60405180910390f35b3480156102f257600080fd5b506102fb6109be565b6040516103089190610d0e565b60405180910390f35b34801561031d57600080fd5b506103266109c8565b6040516103339190610d0e565b60405180910390f35b60007f0000000000000000000000000000000000000000000000000000000000000000905090565b6000600160009054906101000a900460ff16600181111561038857610387611338565b5b905090565b7f000000000000000000000000000000000000000000000000000000000000000073ffffffffffffffffffffffffffffffffffffffff163373ffffffffffffffffffffffffffffffffffffffff161461043f57337f00000000000000000000000000000000000000000000000000000000000000006040517f1cf993f4000000000000000000000000000000000000000000000000000000008152600401610436929190611388565b60405180910390fd5b61044982826109eb565b5050565b7f00000000000000000000000000000000000000000000000000000000000000003410156104a7576040517f066d781f00000000000000000000000000000000000000000000000000000000815260040160405180910390fd5b600060018111156104bb576104ba611338565b5b600160009054906101000a900460ff1660018111156104dd576104dc611338565b5b14610514576040517fd24a271400000000000000000000000000000000000000000000000000000000815260040160405180910390fd5b6002339080600181540180825580915050600190039060005260206000200160009091909190916101000a81548173ffffffffffffffffffffffffffffffffffffffff021916908373ffffffffffffffffffffffffffffffffffffffff1602179055503373ffffffffffffffffffffffffffffffffffffffff167f139478f9146683c028a60fcd7c2669a4d6bfd1b76cd3235e2752c9827ad68da6346040516105bd9190610d0e565b60405180910390a2565b60006105e160405180602001604052806000815250610803565b509050806106505747600280549050600160009054906101000a900460ff16600181111561061257610611611338565b5b6040517f584327aa000000000000000000000000000000000000000000000000000000008152600401610647939291906113b1565b60405180910390fd5b60018060006101000a81548160ff0219169083600181111561067557610674611338565b5b021790555060007f000000000000000000000000000000000000000000000000000000000000000073ffffffffffffffffffffffffffffffffffffffff16635d3b1d307f00000000000000000000000000000000000000000000000000000000000000007f000000000000000000000000000000000000000000000000000000000000000060037f000000000000000000000000000000000000000000000000000000000000000060036040518663ffffffff1660e01b815260040161073f959493929190611443565b602060405180830381600087803b15801561075957600080fd5b505af115801561076d573d6000803e3d6000fd5b505050506040513d601f19601f8201168201806040525081019061079191906114ab565b90507fa6c7ba1f546788b79b686c76235002753ace2bc0945ffb0e8cc72c0a72066118816040516107c29190610d0e565b60405180910390a150505050565b6000600360009054906101000a900473ffffffffffffffffffffffffffffffffffffffff16905090565b60006003905090565b60006060600080600181111561081c5761081b611338565b5b600160009054906101000a900460ff16600181111561083e5761083d611338565b5b14905060007f0000000000000000000000000000000000000000000000000000000000000000600454426108729190611507565b119050600080600280549050119050600080471190508380156108925750825b801561089b5750815b80156108a45750805b955050505050915091565b60006108bb6000610c40565b905090565b6060600280548060200260200160405190810160405280929190818152602001828054801561094457602002820191906000526020600020905b8160009054906101000a900473ffffffffffffffffffffffffffffffffffffffff1673ffffffffffffffffffffffffffffffffffffffff16815260200190600101908083116108fa575b5050505050905090565b60007f0000000000000000000000000000000000000000000000000000000000000000905090565b60006002828154811061098c5761098b61153b565b5b9060005260206000200160009054906101000a900473ffffffffffffffffffffffffffffffffffffffff169050919050565b6000600454905090565b6000600280549050905090565b6001816000016000828254019250508190555050565b600060028054905082600081518110610a0757610a0661153b565b5b6020026020010151610a199190611599565b9050600060028281548110610a3157610a3061153b565b5b9060005260206000200160009054906101000a900473ffffffffffffffffffffffffffffffffffffffff16905080600360006101000a81548173ffffffffffffffffffffffffffffffffffffffff021916908373ffffffffffffffffffffffffffffffffffffffff160217905550600047905060008273ffffffffffffffffffffffffffffffffffffffff1682604051610aca906115fb565b60006040518083038185875af1925050503d8060008114610b07576040519150601f19603f3d011682016040523d82523d6000602084013e610b0c565b606091505b5050905080610b47576040517fa1d04b3900000000000000000000000000000000000000000000000000000000815260040160405180910390fd5b426004819055506000600160006101000a81548160ff02191690836001811115610b7457610b73611338565b5b0217905550600067ffffffffffffffff811115610b9457610b93610d7f565b5b604051908082528060200260200182016040528015610bc25781602001602082028036833780820191505090505b5060029080519060200190610bd8929190610c4e565b506000610be56000610c40565b90508373ffffffffffffffffffffffffffffffffffffffff167fe9f404b80ae3feeb5f1c1346b4c9f34c9ef2eba210696b5cc4490c4c745607758285604051610c2f929190611610565b60405180910390a250505050505050565b600081600001549050919050565b828054828255906000526020600020908101928215610cc7579160200282015b82811115610cc65782518260006101000a81548173ffffffffffffffffffffffffffffffffffffffff021916908373ffffffffffffffffffffffffffffffffffffffff16021790555091602001919060010190610c6e565b5b509050610cd49190610cd8565b5090565b5b80821115610cf1576000816000905550600101610cd9565b5090565b6000819050919050565b610d0881610cf5565b82525050565b6000602082019050610d236000830184610cff565b92915050565b6000604051905090565b600080fd5b600080fd5b610d4681610cf5565b8114610d5157600080fd5b50565b600081359050610d6381610d3d565b92915050565b600080fd5b6000601f19601f8301169050919050565b7f4e487b7100000000000000000000000000000000000000000000000000000000600052604160045260246000fd5b610db782610d6e565b810181811067ffffffffffffffff82111715610dd657610dd5610d7f565b5b80604052505050565b6000610de9610d29565b9050610df58282610dae565b919050565b600067ffffffffffffffff821115610e1557610e14610d7f565b5b602082029050602081019050919050565b600080fd5b6000610e3e610e3984610dfa565b610ddf565b90508083825260208201905060208402830185811115610e6157610e60610e26565b5b835b81811015610e8a5780610e768882610d54565b845260208401935050602081019050610e63565b5050509392505050565b600082601f830112610ea957610ea8610d69565b5b8135610eb9848260208601610e2b565b91505092915050565b60008060408385031215610ed957610ed8610d33565b5b6000610ee785828601610d54565b925050602083013567ffffffffffffffff811115610f0857610f07610d38565b5b610f1485828601610e94565b9150509250929050565b600080fd5b60008083601f840112610f3957610f38610d69565b5b8235905067ffffffffffffffff811115610f5657610f55610f1e565b5b602083019150836001820283011115610f7257610f71610e26565b5b9250929050565b60008060208385031215610f9057610f8f610d33565b5b600083013567ffffffffffffffff811115610fae57610fad610d38565b5b610fba85828601610f23565b92509250509250929050565b600073ffffffffffffffffffffffffffffffffffffffff82169050919050565b6000610ff182610fc6565b9050919050565b61100181610fe6565b82525050565b600060208201905061101c6000830184610ff8565b92915050565b600061ffff82169050919050565b61103981611022565b82525050565b60006020820190506110546000830184611030565b92915050565b600080fd5b600067ffffffffffffffff82111561107a57611079610d7f565b5b61108382610d6e565b9050602081019050919050565b82818337600083830152505050565b60006110b26110ad8461105f565b610ddf565b9050828152602081018484840111156110ce576110cd61105a565b5b6110d9848285611090565b509392505050565b600082601f8301126110f6576110f5610d69565b5b813561110684826020860161109f565b91505092915050565b60006020828403121561112557611124610d33565b5b600082013567ffffffffffffffff81111561114357611142610d38565b5b61114f848285016110e1565b91505092915050565b60008115159050919050565b61116d81611158565b82525050565b600081519050919050565b600082825260208201905092915050565b60005b838110156111ad578082015181840152602081019050611192565b838111156111bc576000848401525b50505050565b60006111cd82611173565b6111d7818561117e565b93506111e781856020860161118f565b6111f081610d6e565b840191505092915050565b60006040820190506112106000830185611164565b818103602083015261122281846111c2565b90509392505050565b600081519050919050565b600082825260208201905092915050565b6000819050602082019050919050565b61126081610fe6565b82525050565b60006112728383611257565b60208301905092915050565b6000602082019050919050565b60006112968261122b565b6112a08185611236565b93506112ab83611247565b8060005b838110156112dc5781516112c38882611266565b97506112ce8361127e565b9250506001810190506112af565b5085935050505092915050565b60006020820190508181036000830152611303818461128b565b905092915050565b60006020828403121561132157611320610d33565b5b600061132f84828501610d54565b91505092915050565b7f4e487b7100000000000000000000000000000000000000000000000000000000600052602160045260246000fd5b600061137282610fc6565b9050919050565b61138281611367565b82525050565b600060408201905061139d6000830185611379565b6113aa6020830184611379565b9392505050565b60006060820190506113c66000830186610cff565b6113d36020830185610cff565b6113e06040830184610cff565b949350505050565b6000819050919050565b6113fb816113e8565b82525050565b600067ffffffffffffffff82169050919050565b61141e81611401565b82525050565b600063ffffffff82169050919050565b61143d81611424565b82525050565b600060a08201905061145860008301886113f2565b6114656020830187611415565b6114726040830186611030565b61147f6060830185611434565b61148c6080830184611434565b9695505050505050565b6000815190506114a581610d3d565b92915050565b6000602082840312156114c1576114c0610d33565b5b60006114cf84828501611496565b91505092915050565b7f4e487b7100000000000000000000000000000000000000000000000000000000600052601160045260246000fd5b600061151282610cf5565b915061151d83610cf5565b9250828210156115305761152f6114d8565b5b828203905092915050565b7f4e487b7100000000000000000000000000000000000000000000000000000000600052603260045260246000fd5b7f4e487b7100000000000000000000000000000000000000000000000000000000600052601260045260246000fd5b60006115a482610cf5565b91506115af83610cf5565b9250826115bf576115be61156a565b5b828206905092915050565b600081905092915050565b50565b60006115e56000836115ca565b91506115f0826115d5565b600082019050919050565b6000611606826115d8565b9150819050919050565b60006040820190506116256000830185610cff565b6116326020830184610cff565b939250505056fea264697066735822122012c41bf8d6cc2d7b9323c2ba643daa9fdf6487a6b4715cecd61e460f27b5348464736f6c63430008090033",
  "devdoc": {
    "kind": "dev",
    "methods": {},
    "version": 1
  },
  "userdoc": {
    "kind": "user",
    "methods": {},
    "version": 1
  },
  "storageLayout": {
    "storage": [
      {
        "astId": 1217,
        "contract": "contracts/Raffle.sol:Raffle",
        "label": "s_currentRaffleId",
        "offset": 0,
        "slot": "0",
        "type": "t_struct(Counter)1117_storage"
      },
      {
        "astId": 1222,
        "contract": "contracts/Raffle.sol:Raffle",
        "label": "s_raffleState",
        "offset": 0,
        "slot": "1",
        "type": "t_enum(RaffleState)1214"
      },
      {
        "astId": 1229,
        "contract": "contracts/Raffle.sol:Raffle",
        "label": "s_players",
        "offset": 0,
        "slot": "2",
        "type": "t_array(t_address_payable)dyn_storage"
      },
      {
        "astId": 1231,
        "contract": "contracts/Raffle.sol:Raffle",
        "label": "s_recentWinner",
        "offset": 0,
        "slot": "3",
        "type": "t_address_payable"
      },
      {
        "astId": 1233,
        "contract": "contracts/Raffle.sol:Raffle",
        "label": "s_lastTimestamp",
        "offset": 0,
        "slot": "4",
        "type": "t_uint256"
      }
    ],
    "types": {
      "t_address_payable": {
        "encoding": "inplace",
        "label": "address payable",
        "numberOfBytes": "20"
      },
      "t_array(t_address_payable)dyn_storage": {
        "base": "t_address_payable",
        "encoding": "dynamic_array",
        "label": "address payable[]",
        "numberOfBytes": "32"
      },
      "t_enum(RaffleState)1214": {
        "encoding": "inplace",
        "label": "enum Raffle.RaffleState",
        "numberOfBytes": "1"
      },
      "t_struct(Counter)1117_storage": {
        "encoding": "inplace",
        "label": "struct Counters.Counter",
        "members": [
          {
            "astId": 1116,
            "contract": "contracts/Raffle.sol:Raffle",
            "label": "_value",
            "offset": 0,
            "slot": "0",
            "type": "t_uint256"
          }
        ],
        "numberOfBytes": "32"
      },
      "t_uint256": {
        "encoding": "inplace",
        "label": "uint256",
        "numberOfBytes": "32"
      }
    }
  }
}