{
  "address": "0xF4A681e0A305601b38804e001b9e8B1aAd84C1dB",
  "abi": [
    {
      "inputs": [],
      "stateMutability": "nonpayable",
      "type": "constructor"
    },
    {
      "inputs": [],
      "name": "NFTMarket__OnlyContractOwner",
      "type": "error"
    },
    {
      "inputs": [],
      "name": "NFTMarket__OnlyTokenOwner",
      "type": "error"
    },
    {
      "inputs": [],
      "name": "NFTMarket__OnlyTokenSeller",
      "type": "error"
    },
    {
      "inputs": [],
      "name": "NFTMarket__OnlyTokenSellerOrOwner",
      "type": "error"
    },
    {
      "inputs": [],
      "name": "NFTMarket__PriceOneWeiLeast",
      "type": "error"
    },
    {
      "inputs": [],
      "name": "NFTMarket__ValueNotEqualListingPrice",
      "type": "error"
    },
    {
      "inputs": [],
      "name": "NFTMarket__ValueNotEqualTokenPrice",
      "type": "error"
    },
    {
      "anonymous": false,
      "inputs": [
        {
          "indexed": true,
          "internalType": "address",
          "name": "owner",
          "type": "address"
        },
        {
          "indexed": true,
          "internalType": "address",
          "name": "approved",
          "type": "address"
        },
        {
          "indexed": true,
          "internalType": "uint256",
          "name": "tokenId",
          "type": "uint256"
        }
      ],
      "name": "Approval",
      "type": "event"
    },
    {
      "anonymous": false,
      "inputs": [
        {
          "indexed": true,
          "internalType": "address",
          "name": "owner",
          "type": "address"
        },
        {
          "indexed": true,
          "internalType": "address",
          "name": "operator",
          "type": "address"
        },
        {
          "indexed": false,
          "internalType": "bool",
          "name": "approved",
          "type": "bool"
        }
      ],
      "name": "ApprovalForAll",
      "type": "event"
    },
    {
      "anonymous": false,
      "inputs": [
        {
          "indexed": true,
          "internalType": "uint256",
          "name": "tokenId",
          "type": "uint256"
        },
        {
          "indexed": false,
          "internalType": "address",
          "name": "seller",
          "type": "address"
        },
        {
          "indexed": false,
          "internalType": "uint256",
          "name": "price",
          "type": "uint256"
        },
        {
          "indexed": false,
          "internalType": "uint256",
          "name": "timestamp",
          "type": "uint256"
        }
      ],
      "name": "MarketItemBurned",
      "type": "event"
    },
    {
      "anonymous": false,
      "inputs": [
        {
          "indexed": true,
          "internalType": "uint256",
          "name": "tokenId",
          "type": "uint256"
        },
        {
          "indexed": false,
          "internalType": "address",
          "name": "seller",
          "type": "address"
        },
        {
          "indexed": false,
          "internalType": "address",
          "name": "owner",
          "type": "address"
        },
        {
          "indexed": false,
          "internalType": "uint256",
          "name": "price",
          "type": "uint256"
        },
        {
          "indexed": false,
          "internalType": "uint256",
          "name": "timestamp",
          "type": "uint256"
        }
      ],
      "name": "MarketItemCreated",
      "type": "event"
    },
    {
      "anonymous": false,
      "inputs": [
        {
          "indexed": true,
          "internalType": "uint256",
          "name": "tokenId",
          "type": "uint256"
        },
        {
          "indexed": false,
          "internalType": "address",
          "name": "seller",
          "type": "address"
        },
        {
          "indexed": false,
          "internalType": "address",
          "name": "owner",
          "type": "address"
        },
        {
          "indexed": false,
          "internalType": "uint256",
          "name": "price",
          "type": "uint256"
        },
        {
          "indexed": false,
          "internalType": "uint256",
          "name": "timestamp",
          "type": "uint256"
        }
      ],
      "name": "MarketItemSold",
      "type": "event"
    },
    {
      "anonymous": false,
      "inputs": [
        {
          "indexed": true,
          "internalType": "address",
          "name": "from",
          "type": "address"
        },
        {
          "indexed": true,
          "internalType": "address",
          "name": "to",
          "type": "address"
        },
        {
          "indexed": true,
          "internalType": "uint256",
          "name": "tokenId",
          "type": "uint256"
        }
      ],
      "name": "Transfer",
      "type": "event"
    },
    {
      "inputs": [
        {
          "internalType": "address",
          "name": "to",
          "type": "address"
        },
        {
          "internalType": "uint256",
          "name": "tokenId",
          "type": "uint256"
        }
      ],
      "name": "approve",
      "outputs": [],
      "stateMutability": "nonpayable",
      "type": "function"
    },
    {
      "inputs": [
        {
          "internalType": "address",
          "name": "owner",
          "type": "address"
        }
      ],
      "name": "balanceOf",
      "outputs": [
        {
          "internalType": "uint256",
          "name": "",
          "type": "uint256"
        }
      ],
      "stateMutability": "view",
      "type": "function"
    },
    {
      "inputs": [
        {
          "internalType": "uint256",
          "name": "tokenId",
          "type": "uint256"
        }
      ],
      "name": "burnToken",
      "outputs": [],
      "stateMutability": "nonpayable",
      "type": "function"
    },
    {
      "inputs": [
        {
          "internalType": "uint256",
          "name": "tokenId",
          "type": "uint256"
        }
      ],
      "name": "createMarketSale",
      "outputs": [],
      "stateMutability": "payable",
      "type": "function"
    },
    {
      "inputs": [
        {
          "internalType": "string",
          "name": "tokenURI",
          "type": "string"
        },
        {
          "internalType": "uint256",
          "name": "price",
          "type": "uint256"
        }
      ],
      "name": "createToken",
      "outputs": [
        {
          "internalType": "uint256",
          "name": "",
          "type": "uint256"
        }
      ],
      "stateMutability": "payable",
      "type": "function"
    },
    {
      "inputs": [
        {
          "internalType": "uint256",
          "name": "tokenId",
          "type": "uint256"
        }
      ],
      "name": "fetchMarketItem",
      "outputs": [
        {
          "components": [
            {
              "internalType": "uint256",
              "name": "tokenId",
              "type": "uint256"
            },
            {
              "internalType": "address payable",
              "name": "seller",
              "type": "address"
            },
            {
              "internalType": "address payable",
              "name": "owner",
              "type": "address"
            },
            {
              "internalType": "uint256",
              "name": "price",
              "type": "uint256"
            },
            {
              "internalType": "bool",
              "name": "sold",
              "type": "bool"
            },
            {
              "internalType": "bool",
              "name": "burned",
              "type": "bool"
            },
            {
              "internalType": "address[]",
              "name": "prevOwners",
              "type": "address[]"
            }
          ],
          "internalType": "struct NFTMarket.MarketItem",
          "name": "",
          "type": "tuple"
        }
      ],
      "stateMutability": "view",
      "type": "function"
    },
    {
      "inputs": [],
      "name": "fetchMarketItems",
      "outputs": [
        {
          "components": [
            {
              "internalType": "uint256",
              "name": "tokenId",
              "type": "uint256"
            },
            {
              "internalType": "address payable",
              "name": "seller",
              "type": "address"
            },
            {
              "internalType": "address payable",
              "name": "owner",
              "type": "address"
            },
            {
              "internalType": "uint256",
              "name": "price",
              "type": "uint256"
            },
            {
              "internalType": "bool",
              "name": "sold",
              "type": "bool"
            },
            {
              "internalType": "bool",
              "name": "burned",
              "type": "bool"
            },
            {
              "internalType": "address[]",
              "name": "prevOwners",
              "type": "address[]"
            }
          ],
          "internalType": "struct NFTMarket.MarketItem[]",
          "name": "",
          "type": "tuple[]"
        }
      ],
      "stateMutability": "view",
      "type": "function"
    },
    {
      "inputs": [],
      "name": "fetchMyNFTs",
      "outputs": [
        {
          "components": [
            {
              "internalType": "uint256",
              "name": "tokenId",
              "type": "uint256"
            },
            {
              "internalType": "address payable",
              "name": "seller",
              "type": "address"
            },
            {
              "internalType": "address payable",
              "name": "owner",
              "type": "address"
            },
            {
              "internalType": "uint256",
              "name": "price",
              "type": "uint256"
            },
            {
              "internalType": "bool",
              "name": "sold",
              "type": "bool"
            },
            {
              "internalType": "bool",
              "name": "burned",
              "type": "bool"
            },
            {
              "internalType": "address[]",
              "name": "prevOwners",
              "type": "address[]"
            }
          ],
          "internalType": "struct NFTMarket.MarketItem[]",
          "name": "",
          "type": "tuple[]"
        }
      ],
      "stateMutability": "view",
      "type": "function"
    },
    {
      "inputs": [],
      "name": "fetchNFTsCreated",
      "outputs": [
        {
          "components": [
            {
              "internalType": "uint256",
              "name": "tokenId",
              "type": "uint256"
            },
            {
              "internalType": "address payable",
              "name": "seller",
              "type": "address"
            },
            {
              "internalType": "address payable",
              "name": "owner",
              "type": "address"
            },
            {
              "internalType": "uint256",
              "name": "price",
              "type": "uint256"
            },
            {
              "internalType": "bool",
              "name": "sold",
              "type": "bool"
            },
            {
              "internalType": "bool",
              "name": "burned",
              "type": "bool"
            },
            {
              "internalType": "address[]",
              "name": "prevOwners",
              "type": "address[]"
            }
          ],
          "internalType": "struct NFTMarket.MarketItem[]",
          "name": "",
          "type": "tuple[]"
        }
      ],
      "stateMutability": "view",
      "type": "function"
    },
    {
      "inputs": [],
      "name": "fetchNFTsSelling",
      "outputs": [
        {
          "components": [
            {
              "internalType": "uint256",
              "name": "tokenId",
              "type": "uint256"
            },
            {
              "internalType": "address payable",
              "name": "seller",
              "type": "address"
            },
            {
              "internalType": "address payable",
              "name": "owner",
              "type": "address"
            },
            {
              "internalType": "uint256",
              "name": "price",
              "type": "uint256"
            },
            {
              "internalType": "bool",
              "name": "sold",
              "type": "bool"
            },
            {
              "internalType": "bool",
              "name": "burned",
              "type": "bool"
            },
            {
              "internalType": "address[]",
              "name": "prevOwners",
              "type": "address[]"
            }
          ],
          "internalType": "struct NFTMarket.MarketItem[]",
          "name": "",
          "type": "tuple[]"
        }
      ],
      "stateMutability": "view",
      "type": "function"
    },
    {
      "inputs": [],
      "name": "fetchSoldMarketItems",
      "outputs": [
        {
          "components": [
            {
              "internalType": "uint256",
              "name": "tokenId",
              "type": "uint256"
            },
            {
              "internalType": "address payable",
              "name": "seller",
              "type": "address"
            },
            {
              "internalType": "address payable",
              "name": "owner",
              "type": "address"
            },
            {
              "internalType": "uint256",
              "name": "price",
              "type": "uint256"
            },
            {
              "internalType": "bool",
              "name": "sold",
              "type": "bool"
            },
            {
              "internalType": "bool",
              "name": "burned",
              "type": "bool"
            },
            {
              "internalType": "address[]",
              "name": "prevOwners",
              "type": "address[]"
            }
          ],
          "internalType": "struct NFTMarket.MarketItem[]",
          "name": "",
          "type": "tuple[]"
        }
      ],
      "stateMutability": "view",
      "type": "function"
    },
    {
      "inputs": [
        {
          "internalType": "uint256",
          "name": "tokenId",
          "type": "uint256"
        }
      ],
      "name": "getApproved",
      "outputs": [
        {
          "internalType": "address",
          "name": "",
          "type": "address"
        }
      ],
      "stateMutability": "view",
      "type": "function"
    },
    {
      "inputs": [],
      "name": "getListingPrice",
      "outputs": [
        {
          "internalType": "uint256",
          "name": "",
          "type": "uint256"
        }
      ],
      "stateMutability": "view",
      "type": "function"
    },
    {
      "inputs": [
        {
          "internalType": "address",
          "name": "owner",
          "type": "address"
        },
        {
          "internalType": "address",
          "name": "operator",
          "type": "address"
        }
      ],
      "name": "isApprovedForAll",
      "outputs": [
        {
          "internalType": "bool",
          "name": "",
          "type": "bool"
        }
      ],
      "stateMutability": "view",
      "type": "function"
    },
    {
      "inputs": [],
      "name": "name",
      "outputs": [
        {
          "internalType": "string",
          "name": "",
          "type": "string"
        }
      ],
      "stateMutability": "view",
      "type": "function"
    },
    {
      "inputs": [
        {
          "internalType": "uint256",
          "name": "tokenId",
          "type": "uint256"
        }
      ],
      "name": "ownerOf",
      "outputs": [
        {
          "internalType": "address",
          "name": "",
          "type": "address"
        }
      ],
      "stateMutability": "view",
      "type": "function"
    },
    {
      "inputs": [
        {
          "internalType": "uint256",
          "name": "tokenId",
          "type": "uint256"
        },
        {
          "internalType": "uint256",
          "name": "price",
          "type": "uint256"
        }
      ],
      "name": "resellToken",
      "outputs": [],
      "stateMutability": "payable",
      "type": "function"
    },
    {
      "inputs": [
        {
          "internalType": "uint256",
          "name": "tokenId",
          "type": "uint256"
        }
      ],
      "name": "revokeMarketItem",
      "outputs": [],
      "stateMutability": "nonpayable",
      "type": "function"
    },
    {
      "inputs": [
        {
          "internalType": "address",
          "name": "from",
          "type": "address"
        },
        {
          "internalType": "address",
          "name": "to",
          "type": "address"
        },
        {
          "internalType": "uint256",
          "name": "tokenId",
          "type": "uint256"
        }
      ],
      "name": "safeTransferFrom",
      "outputs": [],
      "stateMutability": "nonpayable",
      "type": "function"
    },
    {
      "inputs": [
        {
          "internalType": "address",
          "name": "from",
          "type": "address"
        },
        {
          "internalType": "address",
          "name": "to",
          "type": "address"
        },
        {
          "internalType": "uint256",
          "name": "tokenId",
          "type": "uint256"
        },
        {
          "internalType": "bytes",
          "name": "_data",
          "type": "bytes"
        }
      ],
      "name": "safeTransferFrom",
      "outputs": [],
      "stateMutability": "nonpayable",
      "type": "function"
    },
    {
      "inputs": [
        {
          "internalType": "address",
          "name": "operator",
          "type": "address"
        },
        {
          "internalType": "bool",
          "name": "approved",
          "type": "bool"
        }
      ],
      "name": "setApprovalForAll",
      "outputs": [],
      "stateMutability": "nonpayable",
      "type": "function"
    },
    {
      "inputs": [
        {
          "internalType": "bytes4",
          "name": "interfaceId",
          "type": "bytes4"
        }
      ],
      "name": "supportsInterface",
      "outputs": [
        {
          "internalType": "bool",
          "name": "",
          "type": "bool"
        }
      ],
      "stateMutability": "view",
      "type": "function"
    },
    {
      "inputs": [],
      "name": "symbol",
      "outputs": [
        {
          "internalType": "string",
          "name": "",
          "type": "string"
        }
      ],
      "stateMutability": "view",
      "type": "function"
    },
    {
      "inputs": [
        {
          "internalType": "uint256",
          "name": "tokenId",
          "type": "uint256"
        }
      ],
      "name": "tokenURI",
      "outputs": [
        {
          "internalType": "string",
          "name": "",
          "type": "string"
        }
      ],
      "stateMutability": "view",
      "type": "function"
    },
    {
      "inputs": [
        {
          "internalType": "address",
          "name": "from",
          "type": "address"
        },
        {
          "internalType": "address",
          "name": "to",
          "type": "address"
        },
        {
          "internalType": "uint256",
          "name": "tokenId",
          "type": "uint256"
        }
      ],
      "name": "transferFrom",
      "outputs": [],
      "stateMutability": "nonpayable",
      "type": "function"
    },
    {
      "inputs": [
        {
          "internalType": "uint256",
          "name": "_listingPrice",
          "type": "uint256"
        }
      ],
      "name": "updateListingPrice",
      "outputs": [],
      "stateMutability": "nonpayable",
      "type": "function"
    }
  ],
  "transactionHash": "0xe71b16c4b084cea40b99597b9725e314d775d7baa3bf247b10f44c9a9c9e0e6a",
  "args": [],
  "numDeployments": 1,
  "solcInputHash": "2b86abe07aaba8f01640db54b1670191",
  "bytecode": "0x608060405266038d7ea4c68000600a553480156200001c57600080fd5b506040518060400160405280600d81526020017f41766174617220546f6b656e73000000000000000000000000000000000000008152506040518060400160405280600481526020017f41564154000000000000000000000000000000000000000000000000000000008152508160009080519060200190620000a192919062000104565b508060019080519060200190620000ba92919062000104565b50505033600960006101000a81548173ffffffffffffffffffffffffffffffffffffffff021916908373ffffffffffffffffffffffffffffffffffffffff16021790555062000219565b8280546200011290620001b4565b90600052602060002090601f01602090048101928262000136576000855562000182565b82601f106200015157805160ff191683800117855562000182565b8280016001018555821562000182579182015b828111156200018157825182559160200191906001019062000164565b5b50905062000191919062000195565b5090565b5b80821115620001b057600081600090555060010162000196565b5090565b60006002820490506001821680620001cd57607f821691505b60208210811415620001e457620001e3620001ea565b5b50919050565b7f4e487b7100000000000000000000000000000000000000000000000000000000600052602260045260246000fd5b61589180620002296000396000f3fe6080604052600436106101815760003560e01c806372b3b620116100d1578063ae677aa31161008a578063be9af53611610064578063be9af53614610587578063c87b56dd146105a3578063e219fc75146105e0578063e985e9c5146105fc57610181565b8063ae677aa31461050a578063ae74d0b614610533578063b88d4fde1461055e57610181565b806372b3b620146104095780637b47ec1a1461043957806380a1a5fa1461046257806385ca46571461048d57806395d89b41146104b6578063a22cb465146104e157610181565b8063202e37401161013e57806342842e0e1161011857806342842e0e1461033b5780635cc11b34146103645780636352211e1461038f57806370a08231146103cc57610181565b8063202e3740146102aa57806323b872dd146102d55780632a45b250146102fe57610181565b806301ffc9a71461018657806306fdde03146101c3578063081812fc146101ee578063095ea7b31461022b5780630f08efe01461025457806312e855851461027f575b600080fd5b34801561019257600080fd5b506101ad60048036038101906101a8919061448b565b610639565b6040516101ba9190614c55565b60405180910390f35b3480156101cf57600080fd5b506101d861071b565b6040516101e59190614c70565b60405180910390f35b3480156101fa57600080fd5b5061021560048036038101906102109190614531565b6107ad565b6040516102229190614b50565b60405180910390f35b34801561023757600080fd5b50610252600480360381019061024d919061444f565b610832565b005b34801561026057600080fd5b5061026961094a565b6040516102769190614c33565b60405180910390f35b34801561028b57600080fd5b50610294610d2d565b6040516102a19190614ed4565b60405180910390f35b3480156102b657600080fd5b506102bf610d37565b6040516102cc9190614c33565b60405180910390f35b3480156102e157600080fd5b506102fc60048036038101906102f79190614349565b61111a565b005b34801561030a57600080fd5b5061032560048036038101906103209190614531565b61117a565b6040516103329190614eb2565b60405180910390f35b34801561034757600080fd5b50610362600480360381019061035d9190614349565b611331565b005b34801561037057600080fd5b50610379611351565b6040516103869190614c33565b60405180910390f35b34801561039b57600080fd5b506103b660048036038101906103b19190614531565b61182c565b6040516103c39190614b50565b60405180910390f35b3480156103d857600080fd5b506103f360048036038101906103ee91906142e4565b6118de565b6040516104009190614ed4565b60405180910390f35b610423600480360381019061041e91906144dd565b611996565b6040516104309190614ed4565b60405180910390f35b34801561044557600080fd5b50610460600480360381019061045b9190614531565b6119d8565b005b34801561046e57600080fd5b50610477611c50565b6040516104849190614c33565b60405180910390f35b34801561049957600080fd5b506104b460048036038101906104af9190614531565b612033565b005b3480156104c257600080fd5b506104cb612209565b6040516104d89190614c70565b60405180910390f35b3480156104ed57600080fd5b5061050860048036038101906105039190614413565b61229b565b005b34801561051657600080fd5b50610531600480360381019061052c9190614531565b6122b1565b005b34801561053f57600080fd5b50610548612342565b6040516105559190614c33565b60405180910390f35b34801561056a57600080fd5b5061058560048036038101906105809190614398565b612684565b005b6105a1600480360381019061059c9190614531565b6126e6565b005b3480156105af57600080fd5b506105ca60048036038101906105c59190614531565b6129d0565b6040516105d79190614c70565b60405180910390f35b6105fa60048036038101906105f5919061455a565b612b22565b005b34801561060857600080fd5b50610623600480360381019061061e919061430d565b612d05565b6040516106309190614c55565b60405180910390f35b60007f80ac58cd000000000000000000000000000000000000000000000000000000007bffffffffffffffffffffffffffffffffffffffffffffffffffffffff1916827bffffffffffffffffffffffffffffffffffffffffffffffffffffffff1916148061070457507f5b5e139f000000000000000000000000000000000000000000000000000000007bffffffffffffffffffffffffffffffffffffffffffffffffffffffff1916827bffffffffffffffffffffffffffffffffffffffffffffffffffffffff1916145b80610714575061071382612d99565b5b9050919050565b60606000805461072a906151ae565b80601f0160208091040260200160405190810160405280929190818152602001828054610756906151ae565b80156107a35780601f10610778576101008083540402835291602001916107a3565b820191906000526020600020905b81548152906001019060200180831161078657829003601f168201915b5050505050905090565b60006107b882612e03565b6107f7576040517f08c379a00000000000000000000000000000000000000000000000000000000081526004016107ee90614e32565b60405180910390fd5b6004600083815260200190815260200160002060009054906101000a900473ffffffffffffffffffffffffffffffffffffffff169050919050565b600061083d8261182c565b90508073ffffffffffffffffffffffffffffffffffffffff168373ffffffffffffffffffffffffffffffffffffffff1614156108ae576040517f08c379a00000000000000000000000000000000000000000000000000000000081526004016108a590614e72565b60405180910390fd5b8073ffffffffffffffffffffffffffffffffffffffff166108cd612e6f565b73ffffffffffffffffffffffffffffffffffffffff1614806108fc57506108fb816108f6612e6f565b612d05565b5b61093b576040517f08c379a000000000000000000000000000000000000000000000000000000000815260040161093290614d72565b60405180910390fd5b6109458383612e77565b505050565b606060006109586007612f30565b905060008060005b83811015610a01573073ffffffffffffffffffffffffffffffffffffffff16600b6000600184610990919061502b565b815260200190815260200160002060020160009054906101000a900473ffffffffffffffffffffffffffffffffffffffff1673ffffffffffffffffffffffffffffffffffffffff1614156109ee576001836109eb919061502b565b92505b80806109f990615211565b915050610960565b5060008267ffffffffffffffff811115610a44577f4e487b7100000000000000000000000000000000000000000000000000000000600052604160045260246000fd5b604051908082528060200260200182016040528015610a7d57816020015b610a6a613fd1565b815260200190600190039081610a625790505b50905060005b84811015610d22573073ffffffffffffffffffffffffffffffffffffffff16600b6000600184610ab3919061502b565b815260200190815260200160002060020160009054906101000a900473ffffffffffffffffffffffffffffffffffffffff1673ffffffffffffffffffffffffffffffffffffffff161415610d0f576000600182610b10919061502b565b90506000600b60008381526020019081526020016000209050806040518060e0016040529081600082015481526020016001820160009054906101000a900473ffffffffffffffffffffffffffffffffffffffff1673ffffffffffffffffffffffffffffffffffffffff1673ffffffffffffffffffffffffffffffffffffffff1681526020016002820160009054906101000a900473ffffffffffffffffffffffffffffffffffffffff1673ffffffffffffffffffffffffffffffffffffffff1673ffffffffffffffffffffffffffffffffffffffff168152602001600382015481526020016004820160009054906101000a900460ff161515151581526020016004820160019054906101000a900460ff1615151515815260200160058201805480602002602001604051908101604052809291908181526020018280548015610cb057602002820191906000526020600020905b8160009054906101000a900473ffffffffffffffffffffffffffffffffffffffff1673ffffffffffffffffffffffffffffffffffffffff1681526020019060010190808311610c66575b505050505081525050848681518110610cf2577f4e487b7100000000000000000000000000000000000000000000000000000000600052603260045260246000fd5b6020026020010181905250600185610d0a919061502b565b945050505b8080610d1a90615211565b915050610a83565b508094505050505090565b6000600a54905090565b60606000610d456007612f30565b905060008060005b83811015610dee573373ffffffffffffffffffffffffffffffffffffffff16600b6000600184610d7d919061502b565b815260200190815260200160002060020160009054906101000a900473ffffffffffffffffffffffffffffffffffffffff1673ffffffffffffffffffffffffffffffffffffffff161415610ddb57600183610dd8919061502b565b92505b8080610de690615211565b915050610d4d565b5060008267ffffffffffffffff811115610e31577f4e487b7100000000000000000000000000000000000000000000000000000000600052604160045260246000fd5b604051908082528060200260200182016040528015610e6a57816020015b610e57613fd1565b815260200190600190039081610e4f5790505b50905060005b8481101561110f573373ffffffffffffffffffffffffffffffffffffffff16600b6000600184610ea0919061502b565b815260200190815260200160002060020160009054906101000a900473ffffffffffffffffffffffffffffffffffffffff1673ffffffffffffffffffffffffffffffffffffffff1614156110fc576000600182610efd919061502b565b90506000600b60008381526020019081526020016000209050806040518060e0016040529081600082015481526020016001820160009054906101000a900473ffffffffffffffffffffffffffffffffffffffff1673ffffffffffffffffffffffffffffffffffffffff1673ffffffffffffffffffffffffffffffffffffffff1681526020016002820160009054906101000a900473ffffffffffffffffffffffffffffffffffffffff1673ffffffffffffffffffffffffffffffffffffffff1673ffffffffffffffffffffffffffffffffffffffff168152602001600382015481526020016004820160009054906101000a900460ff161515151581526020016004820160019054906101000a900460ff161515151581526020016005820180548060200260200160405190810160405280929190818152602001828054801561109d57602002820191906000526020600020905b8160009054906101000a900473ffffffffffffffffffffffffffffffffffffffff1673ffffffffffffffffffffffffffffffffffffffff1681526020019060010190808311611053575b5050505050815250508486815181106110df577f4e487b7100000000000000000000000000000000000000000000000000000000600052603260045260246000fd5b60200260200101819052506001856110f7919061502b565b945050505b808061110790615211565b915050610e70565b508094505050505090565b61112b611125612e6f565b82612f3e565b61116a576040517f08c379a000000000000000000000000000000000000000000000000000000000815260040161116190614e92565b60405180910390fd5b61117583838361301c565b505050565b611182613fd1565b6000600b60008481526020019081526020016000206040518060e0016040529081600082015481526020016001820160009054906101000a900473ffffffffffffffffffffffffffffffffffffffff1673ffffffffffffffffffffffffffffffffffffffff1673ffffffffffffffffffffffffffffffffffffffff1681526020016002820160009054906101000a900473ffffffffffffffffffffffffffffffffffffffff1673ffffffffffffffffffffffffffffffffffffffff1673ffffffffffffffffffffffffffffffffffffffff168152602001600382015481526020016004820160009054906101000a900460ff161515151581526020016004820160019054906101000a900460ff161515151581526020016005820180548060200260200160405190810160405280929190818152602001828054801561131d57602002820191906000526020600020905b8160009054906101000a900473ffffffffffffffffffffffffffffffffffffffff1673ffffffffffffffffffffffffffffffffffffffff16815260200190600101908083116112d3575b505050505081525050905080915050919050565b61134c83838360405180602001604052806000815250612684565b505050565b6060600061135f6007612f30565b905060008060005b83811015611484573373ffffffffffffffffffffffffffffffffffffffff16600b6000600184611397919061502b565b81526020019081526020016000206005016000815481106113e1577f4e487b7100000000000000000000000000000000000000000000000000000000600052603260045260246000fd5b9060005260206000200160009054906101000a900473ffffffffffffffffffffffffffffffffffffffff1673ffffffffffffffffffffffffffffffffffffffff1614801561145c5750600b600060018361143b919061502b565b815260200190815260200160002060040160019054906101000a900460ff16155b156114715760018361146e919061502b565b92505b808061147c90615211565b915050611367565b5060008267ffffffffffffffff8111156114c7577f4e487b7100000000000000000000000000000000000000000000000000000000600052604160045260246000fd5b60405190808252806020026020018201604052801561150057816020015b6114ed613fd1565b8152602001906001900390816114e55790505b50905060005b84811015611821573373ffffffffffffffffffffffffffffffffffffffff16600b6000600184611536919061502b565b8152602001908152602001600020600501600081548110611580577f4e487b7100000000000000000000000000000000000000000000000000000000600052603260045260246000fd5b9060005260206000200160009054906101000a900473ffffffffffffffffffffffffffffffffffffffff1673ffffffffffffffffffffffffffffffffffffffff161480156115fb5750600b60006001836115da919061502b565b815260200190815260200160002060040160019054906101000a900460ff16155b1561180e57600060018261160f919061502b565b90506000600b60008381526020019081526020016000209050806040518060e0016040529081600082015481526020016001820160009054906101000a900473ffffffffffffffffffffffffffffffffffffffff1673ffffffffffffffffffffffffffffffffffffffff1673ffffffffffffffffffffffffffffffffffffffff1681526020016002820160009054906101000a900473ffffffffffffffffffffffffffffffffffffffff1673ffffffffffffffffffffffffffffffffffffffff1673ffffffffffffffffffffffffffffffffffffffff168152602001600382015481526020016004820160009054906101000a900460ff161515151581526020016004820160019054906101000a900460ff16151515158152602001600582018054806020026020016040519081016040528092919081815260200182805480156117af57602002820191906000526020600020905b8160009054906101000a900473ffffffffffffffffffffffffffffffffffffffff1673ffffffffffffffffffffffffffffffffffffffff1681526020019060010190808311611765575b5050505050815250508486815181106117f1577f4e487b7100000000000000000000000000000000000000000000000000000000600052603260045260246000fd5b6020026020010181905250600185611809919061502b565b945050505b808061181990615211565b915050611506565b508094505050505090565b6000806002600084815260200190815260200160002060009054906101000a900473ffffffffffffffffffffffffffffffffffffffff169050600073ffffffffffffffffffffffffffffffffffffffff168173ffffffffffffffffffffffffffffffffffffffff1614156118d5576040517f08c379a00000000000000000000000000000000000000000000000000000000081526004016118cc90614db2565b60405180910390fd5b80915050919050565b60008073ffffffffffffffffffffffffffffffffffffffff168273ffffffffffffffffffffffffffffffffffffffff16141561194f576040517f08c379a000000000000000000000000000000000000000000000000000000000815260040161194690614d92565b60405180910390fd5b600360008373ffffffffffffffffffffffffffffffffffffffff1673ffffffffffffffffffffffffffffffffffffffff168152602001908152602001600020549050919050565b60006119a26007613283565b60006119ae6007612f30565b90506119ba3382613299565b6119c48185613473565b6119ce81846134e7565b8091505092915050565b3373ffffffffffffffffffffffffffffffffffffffff16600b600083815260200190815260200160002060020160009054906101000a900473ffffffffffffffffffffffffffffffffffffffff1673ffffffffffffffffffffffffffffffffffffffff1614158015611aac57503373ffffffffffffffffffffffffffffffffffffffff16600b600083815260200190815260200160002060010160009054906101000a900473ffffffffffffffffffffffffffffffffffffffff1673ffffffffffffffffffffffffffffffffffffffff1614155b15611ae3576040517f72d39e2a00000000000000000000000000000000000000000000000000000000815260040160405180910390fd5b611aec8161380d565b6000600b600083815260200190815260200160002060020160006101000a81548173ffffffffffffffffffffffffffffffffffffffff021916908373ffffffffffffffffffffffffffffffffffffffff1602179055506000600b600083815260200190815260200160002060010160006101000a81548173ffffffffffffffffffffffffffffffffffffffff021916908373ffffffffffffffffffffffffffffffffffffffff1602179055506001600b600083815260200190815260200160002060040160016101000a81548160ff021916908315150217905550600b600082815260200190815260200160002060040160009054906101000a900460ff1615611bfb57611bfa6008613860565b5b807fe8a963e7e738f88a90edd00474df78d6fc2c6d269b9926f6f9625590c89c4bcf33600b60008581526020019081526020016000206003015442604051611c4593929190614bfc565b60405180910390a250565b60606000611c5e6007612f30565b905060008060005b83811015611d07573373ffffffffffffffffffffffffffffffffffffffff16600b6000600184611c96919061502b565b815260200190815260200160002060010160009054906101000a900473ffffffffffffffffffffffffffffffffffffffff1673ffffffffffffffffffffffffffffffffffffffff161415611cf457600183611cf1919061502b565b92505b8080611cff90615211565b915050611c66565b5060008267ffffffffffffffff811115611d4a577f4e487b7100000000000000000000000000000000000000000000000000000000600052604160045260246000fd5b604051908082528060200260200182016040528015611d8357816020015b611d70613fd1565b815260200190600190039081611d685790505b50905060005b84811015612028573373ffffffffffffffffffffffffffffffffffffffff16600b6000600184611db9919061502b565b815260200190815260200160002060010160009054906101000a900473ffffffffffffffffffffffffffffffffffffffff1673ffffffffffffffffffffffffffffffffffffffff161415612015576000600182611e16919061502b565b90506000600b60008381526020019081526020016000209050806040518060e0016040529081600082015481526020016001820160009054906101000a900473ffffffffffffffffffffffffffffffffffffffff1673ffffffffffffffffffffffffffffffffffffffff1673ffffffffffffffffffffffffffffffffffffffff1681526020016002820160009054906101000a900473ffffffffffffffffffffffffffffffffffffffff1673ffffffffffffffffffffffffffffffffffffffff1673ffffffffffffffffffffffffffffffffffffffff168152602001600382015481526020016004820160009054906101000a900460ff161515151581526020016004820160019054906101000a900460ff1615151515815260200160058201805480602002602001604051908101604052809291908181526020018280548015611fb657602002820191906000526020600020905b8160009054906101000a900473ffffffffffffffffffffffffffffffffffffffff1673ffffffffffffffffffffffffffffffffffffffff1681526020019060010190808311611f6c575b505050505081525050848681518110611ff8577f4e487b7100000000000000000000000000000000000000000000000000000000600052603260045260246000fd5b6020026020010181905250600185612010919061502b565b945050505b808061202090615211565b915050611d89565b508094505050505090565b3373ffffffffffffffffffffffffffffffffffffffff16600b600083815260200190815260200160002060010160009054906101000a900473ffffffffffffffffffffffffffffffffffffffff1673ffffffffffffffffffffffffffffffffffffffff16146120ce576040517f238bd12e00000000000000000000000000000000000000000000000000000000815260040160405180910390fd5b33600b600083815260200190815260200160002060020160006101000a81548173ffffffffffffffffffffffffffffffffffffffff021916908373ffffffffffffffffffffffffffffffffffffffff1602179055506000600b600083815260200190815260200160002060010160006101000a81548173ffffffffffffffffffffffffffffffffffffffff021916908373ffffffffffffffffffffffffffffffffffffffff1602179055506001600b600083815260200190815260200160002060040160006101000a81548160ff0219169083151502179055506121b26008613283565b6121bd30338361301c565b3373ffffffffffffffffffffffffffffffffffffffff166108fc600a549081150290604051600060405180830381858888f19350505050158015612205573d6000803e3d6000fd5b5050565b606060018054612218906151ae565b80601f0160208091040260200160405190810160405280929190818152602001828054612244906151ae565b80156122915780601f1061226657610100808354040283529160200191612291565b820191906000526020600020905b81548152906001019060200180831161227457829003601f168201915b5050505050905090565b6122ad6122a6612e6f565b83836138bc565b5050565b600960009054906101000a900473ffffffffffffffffffffffffffffffffffffffff1673ffffffffffffffffffffffffffffffffffffffff163373ffffffffffffffffffffffffffffffffffffffff1614612338576040517f4ec9898a00000000000000000000000000000000000000000000000000000000815260040160405180910390fd5b80600a8190555050565b606060006123506007612f30565b9050600061235e6008612f30565b90506000808267ffffffffffffffff8111156123a3577f4e487b7100000000000000000000000000000000000000000000000000000000600052604160045260246000fd5b6040519080825280602002602001820160405280156123dc57816020015b6123c9613fd1565b8152602001906001900390816123c15790505b50905060005b8481101561267957600b60006001836123fb919061502b565b815260200190815260200160002060040160009054906101000a900460ff1680156124535750600b6000600183612432919061502b565b815260200190815260200160002060040160019054906101000a900460ff16155b15612666576000600182612467919061502b565b90506000600b60008381526020019081526020016000209050806040518060e0016040529081600082015481526020016001820160009054906101000a900473ffffffffffffffffffffffffffffffffffffffff1673ffffffffffffffffffffffffffffffffffffffff1673ffffffffffffffffffffffffffffffffffffffff1681526020016002820160009054906101000a900473ffffffffffffffffffffffffffffffffffffffff1673ffffffffffffffffffffffffffffffffffffffff1673ffffffffffffffffffffffffffffffffffffffff168152602001600382015481526020016004820160009054906101000a900460ff161515151581526020016004820160019054906101000a900460ff161515151581526020016005820180548060200260200160405190810160405280929190818152602001828054801561260757602002820191906000526020600020905b8160009054906101000a900473ffffffffffffffffffffffffffffffffffffffff1673ffffffffffffffffffffffffffffffffffffffff16815260200190600101908083116125bd575b505050505081525050848681518110612649577f4e487b7100000000000000000000000000000000000000000000000000000000600052603260045260246000fd5b6020026020010181905250600185612661919061502b565b945050505b808061267190615211565b9150506123e2565b508094505050505090565b61269561268f612e6f565b83612f3e565b6126d4576040517f08c379a00000000000000000000000000000000000000000000000000000000081526004016126cb90614e92565b60405180910390fd5b6126e084848484613a29565b50505050565b6000600b60008381526020019081526020016000206003015490506000600b600084815260200190815260200160002060010160009054906101000a900473ffffffffffffffffffffffffffffffffffffffff169050813414612775576040517fa283524600000000000000000000000000000000000000000000000000000000815260040160405180910390fd5b33600b600085815260200190815260200160002060020160006101000a81548173ffffffffffffffffffffffffffffffffffffffff021916908373ffffffffffffffffffffffffffffffffffffffff1602179055506001600b600085815260200190815260200160002060040160006101000a81548160ff0219169083151502179055506000600b600085815260200190815260200160002060010160006101000a81548173ffffffffffffffffffffffffffffffffffffffff021916908373ffffffffffffffffffffffffffffffffffffffff160217905550600b6000848152602001908152602001600020600501339080600181540180825580915050600190039060005260206000200160009091909190916101000a81548173ffffffffffffffffffffffffffffffffffffffff021916908373ffffffffffffffffffffffffffffffffffffffff1602179055506128d06008613283565b6128db30338561301c565b600960009054906101000a900473ffffffffffffffffffffffffffffffffffffffff1673ffffffffffffffffffffffffffffffffffffffff166108fc600a549081150290604051600060405180830381858888f19350505050158015612945573d6000803e3d6000fd5b508073ffffffffffffffffffffffffffffffffffffffff166108fc349081150290604051600060405180830381858888f1935050505015801561298c573d6000803e3d6000fd5b50827faa09f5507a932f33858f6e50987bdc07611026482d46b974d2f665eada7d266f823385426040516129c39493929190614bb7565b60405180910390a2505050565b60606129db82612e03565b612a1a576040517f08c379a0000000000000000000000000000000000000000000000000000000008152600401612a1190614e12565b60405180910390fd5b6000600660008481526020019081526020016000208054612a3a906151ae565b80601f0160208091040260200160405190810160405280929190818152602001828054612a66906151ae565b8015612ab35780601f10612a8857610100808354040283529160200191612ab3565b820191906000526020600020905b815481529060010190602001808311612a9657829003601f168201915b505050505090506000612ac4613a85565b9050600081511415612ada578192505050612b1d565b600082511115612b0f578082604051602001612af7929190614b2c565b60405160208183030381529060405292505050612b1d565b612b1884613a9c565b925050505b919050565b3373ffffffffffffffffffffffffffffffffffffffff16600b600084815260200190815260200160002060020160009054906101000a900473ffffffffffffffffffffffffffffffffffffffff1673ffffffffffffffffffffffffffffffffffffffff1614612bbd576040517f79235f8f00000000000000000000000000000000000000000000000000000000815260040160405180910390fd5b600a543414612bf8576040517ff6e5d8c200000000000000000000000000000000000000000000000000000000815260040160405180910390fd5b6000600b600084815260200190815260200160002060040160006101000a81548160ff02191690831515021790555080600b60008481526020019081526020016000206003018190555033600b600084815260200190815260200160002060010160006101000a81548173ffffffffffffffffffffffffffffffffffffffff021916908373ffffffffffffffffffffffffffffffffffffffff16021790555030600b600084815260200190815260200160002060020160006101000a81548173ffffffffffffffffffffffffffffffffffffffff021916908373ffffffffffffffffffffffffffffffffffffffff160217905550612cf66008613860565b612d0133308461301c565b5050565b6000600560008473ffffffffffffffffffffffffffffffffffffffff1673ffffffffffffffffffffffffffffffffffffffff16815260200190815260200160002060008373ffffffffffffffffffffffffffffffffffffffff1673ffffffffffffffffffffffffffffffffffffffff16815260200190815260200160002060009054906101000a900460ff16905092915050565b60007f01ffc9a7000000000000000000000000000000000000000000000000000000007bffffffffffffffffffffffffffffffffffffffffffffffffffffffff1916827bffffffffffffffffffffffffffffffffffffffffffffffffffffffff1916149050919050565b60008073ffffffffffffffffffffffffffffffffffffffff166002600084815260200190815260200160002060009054906101000a900473ffffffffffffffffffffffffffffffffffffffff1673ffffffffffffffffffffffffffffffffffffffff1614159050919050565b600033905090565b816004600083815260200190815260200160002060006101000a81548173ffffffffffffffffffffffffffffffffffffffff021916908373ffffffffffffffffffffffffffffffffffffffff160217905550808273ffffffffffffffffffffffffffffffffffffffff16612eea8361182c565b73ffffffffffffffffffffffffffffffffffffffff167f8c5be1e5ebec7d5bd14f71427d1e84f3dd0314c0f7b2291e5b200ac8c7c3b92560405160405180910390a45050565b600081600001549050919050565b6000612f4982612e03565b612f88576040517f08c379a0000000000000000000000000000000000000000000000000000000008152600401612f7f90614d52565b60405180910390fd5b6000612f938361182c565b90508073ffffffffffffffffffffffffffffffffffffffff168473ffffffffffffffffffffffffffffffffffffffff161480612fd55750612fd48185612d05565b5b8061301357508373ffffffffffffffffffffffffffffffffffffffff16612ffb846107ad565b73ffffffffffffffffffffffffffffffffffffffff16145b91505092915050565b8273ffffffffffffffffffffffffffffffffffffffff1661303c8261182c565b73ffffffffffffffffffffffffffffffffffffffff1614613092576040517f08c379a000000000000000000000000000000000000000000000000000000000815260040161308990614cd2565b60405180910390fd5b600073ffffffffffffffffffffffffffffffffffffffff168273ffffffffffffffffffffffffffffffffffffffff161415613102576040517f08c379a00000000000000000000000000000000000000000000000000000000081526004016130f990614d12565b60405180910390fd5b61310d838383613b43565b613118600082612e77565b6001600360008573ffffffffffffffffffffffffffffffffffffffff1673ffffffffffffffffffffffffffffffffffffffff168152602001908152602001600020600082825461316891906150b2565b925050819055506001600360008473ffffffffffffffffffffffffffffffffffffffff1673ffffffffffffffffffffffffffffffffffffffff16815260200190815260200160002060008282546131bf919061502b565b92505081905550816002600083815260200190815260200160002060006101000a81548173ffffffffffffffffffffffffffffffffffffffff021916908373ffffffffffffffffffffffffffffffffffffffff160217905550808273ffffffffffffffffffffffffffffffffffffffff168473ffffffffffffffffffffffffffffffffffffffff167fddf252ad1be2c89b69c2b068fc378daa952ba7f163c4a11628f55a4df523b3ef60405160405180910390a461327e838383613b48565b505050565b6001816000016000828254019250508190555050565b600073ffffffffffffffffffffffffffffffffffffffff168273ffffffffffffffffffffffffffffffffffffffff161415613309576040517f08c379a000000000000000000000000000000000000000000000000000000000815260040161330090614df2565b60405180910390fd5b61331281612e03565b15613352576040517f08c379a000000000000000000000000000000000000000000000000000000000815260040161334990614cf2565b60405180910390fd5b61335e60008383613b43565b6001600360008473ffffffffffffffffffffffffffffffffffffffff1673ffffffffffffffffffffffffffffffffffffffff16815260200190815260200160002060008282546133ae919061502b565b92505081905550816002600083815260200190815260200160002060006101000a81548173ffffffffffffffffffffffffffffffffffffffff021916908373ffffffffffffffffffffffffffffffffffffffff160217905550808273ffffffffffffffffffffffffffffffffffffffff16600073ffffffffffffffffffffffffffffffffffffffff167fddf252ad1be2c89b69c2b068fc378daa952ba7f163c4a11628f55a4df523b3ef60405160405180910390a461346f60008383613b48565b5050565b61347c82612e03565b6134bb576040517f08c379a00000000000000000000000000000000000000000000000000000000081526004016134b290614dd2565b60405180910390fd5b806006600084815260200190815260200160002090805190602001906134e292919061403e565b505050565b60008111613521576040517f42466cee00000000000000000000000000000000000000000000000000000000815260040160405180910390fd5b600a54341461355c576040517ff6e5d8c200000000000000000000000000000000000000000000000000000000815260040160405180910390fd5b6000600167ffffffffffffffff81111561359f577f4e487b7100000000000000000000000000000000000000000000000000000000600052604160045260246000fd5b6040519080825280602002602001820160405280156135cd5781602001602082028036833780820191505090505b509050338160008151811061360b577f4e487b7100000000000000000000000000000000000000000000000000000000600052603260045260246000fd5b602002602001019073ffffffffffffffffffffffffffffffffffffffff16908173ffffffffffffffffffffffffffffffffffffffff16815250506040518060e001604052808481526020013373ffffffffffffffffffffffffffffffffffffffff1681526020013073ffffffffffffffffffffffffffffffffffffffff16815260200183815260200160001515815260200160001515815260200182815250600b60008581526020019081526020016000206000820151816000015560208201518160010160006101000a81548173ffffffffffffffffffffffffffffffffffffffff021916908373ffffffffffffffffffffffffffffffffffffffff16021790555060408201518160020160006101000a81548173ffffffffffffffffffffffffffffffffffffffff021916908373ffffffffffffffffffffffffffffffffffffffff1602179055506060820151816003015560808201518160040160006101000a81548160ff02191690831515021790555060a08201518160040160016101000a81548160ff02191690831515021790555060c08201518160050190805190602001906137bb9291906140c4565b509050506137ca33308561301c565b827f8b4b28a767e8e7ee687d23cdfbc43fc8b6ba36a3b5190fa4b6ce968d7ceafacd333085426040516138009493929190614bb7565b60405180910390a2505050565b61381681613b4d565b6000600660008381526020019081526020016000208054613836906151ae565b90501461385d5760066000828152602001908152602001600020600061385c919061414e565b5b50565b600081600001549050600081116138ac576040517f08c379a00000000000000000000000000000000000000000000000000000000081526004016138a390614c92565b60405180910390fd5b6001810382600001819055505050565b8173ffffffffffffffffffffffffffffffffffffffff168373ffffffffffffffffffffffffffffffffffffffff16141561392b576040517f08c379a000000000000000000000000000000000000000000000000000000000815260040161392290614d32565b60405180910390fd5b80600560008573ffffffffffffffffffffffffffffffffffffffff1673ffffffffffffffffffffffffffffffffffffffff16815260200190815260200160002060008473ffffffffffffffffffffffffffffffffffffffff1673ffffffffffffffffffffffffffffffffffffffff16815260200190815260200160002060006101000a81548160ff0219169083151502179055508173ffffffffffffffffffffffffffffffffffffffff168373ffffffffffffffffffffffffffffffffffffffff167f17307eab39ab6107e8899845ad3d59bd9653f200f220920489ca2b5937696c3183604051613a1c9190614c55565b60405180910390a3505050565b613a3484848461301c565b613a4084848484613c6a565b613a7f576040517f08c379a0000000000000000000000000000000000000000000000000000000008152600401613a7690614cb2565b60405180910390fd5b50505050565b606060405180602001604052806000815250905090565b6060613aa782612e03565b613ae6576040517f08c379a0000000000000000000000000000000000000000000000000000000008152600401613add90614e52565b60405180910390fd5b6000613af0613a85565b90506000815111613b105760405180602001604052806000815250613b3b565b80613b1a84613e01565b604051602001613b2b929190614b2c565b6040516020818303038152906040525b915050919050565b505050565b505050565b6000613b588261182c565b9050613b6681600084613b43565b613b71600083612e77565b6001600360008373ffffffffffffffffffffffffffffffffffffffff1673ffffffffffffffffffffffffffffffffffffffff1681526020019081526020016000206000828254613bc191906150b2565b925050819055506002600083815260200190815260200160002060006101000a81549073ffffffffffffffffffffffffffffffffffffffff021916905581600073ffffffffffffffffffffffffffffffffffffffff168273ffffffffffffffffffffffffffffffffffffffff167fddf252ad1be2c89b69c2b068fc378daa952ba7f163c4a11628f55a4df523b3ef60405160405180910390a4613c6681600084613b48565b5050565b6000613c8b8473ffffffffffffffffffffffffffffffffffffffff16613fae565b15613df4578373ffffffffffffffffffffffffffffffffffffffff1663150b7a02613cb4612e6f565b8786866040518563ffffffff1660e01b8152600401613cd69493929190614b6b565b602060405180830381600087803b158015613cf057600080fd5b505af1925050508015613d2157506040513d601f19601f82011682018060405250810190613d1e91906144b4565b60015b613da4573d8060008114613d51576040519150601f19603f3d011682016040523d82523d6000602084013e613d56565b606091505b50600081511415613d9c576040517f08c379a0000000000000000000000000000000000000000000000000000000008152600401613d9390614cb2565b60405180910390fd5b805181602001fd5b63150b7a0260e01b7bffffffffffffffffffffffffffffffffffffffffffffffffffffffff1916817bffffffffffffffffffffffffffffffffffffffffffffffffffffffff191614915050613df9565b600190505b949350505050565b60606000821415613e49576040518060400160405280600181526020017f30000000000000000000000000000000000000000000000000000000000000008152509050613fa9565b600082905060005b60008214613e7b578080613e6490615211565b915050600a82613e749190615081565b9150613e51565b60008167ffffffffffffffff811115613ebd577f4e487b7100000000000000000000000000000000000000000000000000000000600052604160045260246000fd5b6040519080825280601f01601f191660200182016040528015613eef5781602001600182028036833780820191505090505b5090505b60008514613fa257600182613f0891906150b2565b9150600a85613f17919061525a565b6030613f23919061502b565b60f81b818381518110613f5f577f4e487b7100000000000000000000000000000000000000000000000000000000600052603260045260246000fd5b60200101907effffffffffffffffffffffffffffffffffffffffffffffffffffffffffffff1916908160001a905350600a85613f9b9190615081565b9450613ef3565b8093505050505b919050565b6000808273ffffffffffffffffffffffffffffffffffffffff163b119050919050565b6040518060e0016040528060008152602001600073ffffffffffffffffffffffffffffffffffffffff168152602001600073ffffffffffffffffffffffffffffffffffffffff16815260200160008152602001600015158152602001600015158152602001606081525090565b82805461404a906151ae565b90600052602060002090601f01602090048101928261406c57600085556140b3565b82601f1061408557805160ff19168380011785556140b3565b828001600101855582156140b3579182015b828111156140b2578251825591602001919060010190614097565b5b5090506140c0919061418e565b5090565b82805482825590600052602060002090810192821561413d579160200282015b8281111561413c5782518260006101000a81548173ffffffffffffffffffffffffffffffffffffffff021916908373ffffffffffffffffffffffffffffffffffffffff160217905550916020019190600101906140e4565b5b50905061414a919061418e565b5090565b50805461415a906151ae565b6000825580601f1061416c575061418b565b601f01602090049060005260206000209081019061418a919061418e565b5b50565b5b808211156141a757600081600090555060010161418f565b5090565b60006141be6141b984614f14565b614eef565b9050828152602081018484840111156141d657600080fd5b6141e184828561516c565b509392505050565b60006141fc6141f784614f45565b614eef565b90508281526020810184848401111561421457600080fd5b61421f84828561516c565b509392505050565b600081359050614236816157ff565b92915050565b60008135905061424b81615816565b92915050565b6000813590506142608161582d565b92915050565b6000815190506142758161582d565b92915050565b600082601f83011261428c57600080fd5b813561429c8482602086016141ab565b91505092915050565b600082601f8301126142b657600080fd5b81356142c68482602086016141e9565b91505092915050565b6000813590506142de81615844565b92915050565b6000602082840312156142f657600080fd5b600061430484828501614227565b91505092915050565b6000806040838503121561432057600080fd5b600061432e85828601614227565b925050602061433f85828601614227565b9150509250929050565b60008060006060848603121561435e57600080fd5b600061436c86828701614227565b935050602061437d86828701614227565b925050604061438e868287016142cf565b9150509250925092565b600080600080608085870312156143ae57600080fd5b60006143bc87828801614227565b94505060206143cd87828801614227565b93505060406143de878288016142cf565b925050606085013567ffffffffffffffff8111156143fb57600080fd5b6144078782880161427b565b91505092959194509250565b6000806040838503121561442657600080fd5b600061443485828601614227565b92505060206144458582860161423c565b9150509250929050565b6000806040838503121561446257600080fd5b600061447085828601614227565b9250506020614481858286016142cf565b9150509250929050565b60006020828403121561449d57600080fd5b60006144ab84828501614251565b91505092915050565b6000602082840312156144c657600080fd5b60006144d484828501614266565b91505092915050565b600080604083850312156144f057600080fd5b600083013567ffffffffffffffff81111561450a57600080fd5b614516858286016142a5565b9250506020614527858286016142cf565b9150509250929050565b60006020828403121561454357600080fd5b6000614551848285016142cf565b91505092915050565b6000806040838503121561456d57600080fd5b600061457b858286016142cf565b925050602061458c858286016142cf565b9150509250929050565b60006145a283836145d1565b60208301905092915050565b60006145ba83836149d6565b905092915050565b6145cb816150f8565b82525050565b6145da816150e6565b82525050565b6145e9816150e6565b82525050565b60006145fa82614f96565b6146048185614fdc565b935061460f83614f76565b8060005b838110156146405781516146278882614596565b975061463283614fc2565b925050600181019050614613565b5085935050505092915050565b600061465882614fa1565b6146628185614fed565b93508360208202850161467485614f86565b8060005b858110156146b0578484038952815161469185826145ae565b945061469c83614fcf565b925060208a01995050600181019050614678565b50829750879550505050505092915050565b6146cb8161510a565b82525050565b6146da8161510a565b82525050565b60006146eb82614fac565b6146f58185614ffe565b935061470581856020860161517b565b61470e81615347565b840191505092915050565b600061472482614fb7565b61472e818561500f565b935061473e81856020860161517b565b61474781615347565b840191505092915050565b600061475d82614fb7565b6147678185615020565b935061477781856020860161517b565b80840191505092915050565b6000614790601b8361500f565b915061479b82615358565b602082019050919050565b60006147b360328361500f565b91506147be82615381565b604082019050919050565b60006147d660258361500f565b91506147e1826153d0565b604082019050919050565b60006147f9601c8361500f565b91506148048261541f565b602082019050919050565b600061481c60248361500f565b915061482782615448565b604082019050919050565b600061483f60198361500f565b915061484a82615497565b602082019050919050565b6000614862602c8361500f565b915061486d826154c0565b604082019050919050565b600061488560388361500f565b91506148908261550f565b604082019050919050565b60006148a8602a8361500f565b91506148b38261555e565b604082019050919050565b60006148cb60298361500f565b91506148d6826155ad565b604082019050919050565b60006148ee602e8361500f565b91506148f9826155fc565b604082019050919050565b600061491160208361500f565b915061491c8261564b565b602082019050919050565b600061493460318361500f565b915061493f82615674565b604082019050919050565b6000614957602c8361500f565b9150614962826156c3565b604082019050919050565b600061497a602f8361500f565b915061498582615712565b604082019050919050565b600061499d60218361500f565b91506149a882615761565b604082019050919050565b60006149c060318361500f565b91506149cb826157b0565b604082019050919050565b600060e0830160008301516149ee6000860182614b0e565b506020830151614a0160208601826145c2565b506040830151614a1460408601826145c2565b506060830151614a276060860182614b0e565b506080830151614a3a60808601826146c2565b5060a0830151614a4d60a08601826146c2565b5060c083015184820360c0860152614a6582826145ef565b9150508091505092915050565b600060e083016000830151614a8a6000860182614b0e565b506020830151614a9d60208601826145c2565b506040830151614ab060408601826145c2565b506060830151614ac36060860182614b0e565b506080830151614ad660808601826146c2565b5060a0830151614ae960a08601826146c2565b5060c083015184820360c0860152614b0182826145ef565b9150508091505092915050565b614b1781615162565b82525050565b614b2681615162565b82525050565b6000614b388285614752565b9150614b448284614752565b91508190509392505050565b6000602082019050614b6560008301846145e0565b92915050565b6000608082019050614b8060008301876145e0565b614b8d60208301866145e0565b614b9a6040830185614b1d565b8181036060830152614bac81846146e0565b905095945050505050565b6000608082019050614bcc60008301876145e0565b614bd960208301866145e0565b614be66040830185614b1d565b614bf36060830184614b1d565b95945050505050565b6000606082019050614c1160008301866145e0565b614c1e6020830185614b1d565b614c2b6040830184614b1d565b949350505050565b60006020820190508181036000830152614c4d818461464d565b905092915050565b6000602082019050614c6a60008301846146d1565b92915050565b60006020820190508181036000830152614c8a8184614719565b905092915050565b60006020820190508181036000830152614cab81614783565b9050919050565b60006020820190508181036000830152614ccb816147a6565b9050919050565b60006020820190508181036000830152614ceb816147c9565b9050919050565b60006020820190508181036000830152614d0b816147ec565b9050919050565b60006020820190508181036000830152614d2b8161480f565b9050919050565b60006020820190508181036000830152614d4b81614832565b9050919050565b60006020820190508181036000830152614d6b81614855565b9050919050565b60006020820190508181036000830152614d8b81614878565b9050919050565b60006020820190508181036000830152614dab8161489b565b9050919050565b60006020820190508181036000830152614dcb816148be565b9050919050565b60006020820190508181036000830152614deb816148e1565b9050919050565b60006020820190508181036000830152614e0b81614904565b9050919050565b60006020820190508181036000830152614e2b81614927565b9050919050565b60006020820190508181036000830152614e4b8161494a565b9050919050565b60006020820190508181036000830152614e6b8161496d565b9050919050565b60006020820190508181036000830152614e8b81614990565b9050919050565b60006020820190508181036000830152614eab816149b3565b9050919050565b60006020820190508181036000830152614ecc8184614a72565b905092915050565b6000602082019050614ee96000830184614b1d565b92915050565b6000614ef9614f0a565b9050614f0582826151e0565b919050565b6000604051905090565b600067ffffffffffffffff821115614f2f57614f2e615318565b5b614f3882615347565b9050602081019050919050565b600067ffffffffffffffff821115614f6057614f5f615318565b5b614f6982615347565b9050602081019050919050565b6000819050602082019050919050565b6000819050602082019050919050565b600081519050919050565b600081519050919050565b600081519050919050565b600081519050919050565b6000602082019050919050565b6000602082019050919050565b600082825260208201905092915050565b600082825260208201905092915050565b600082825260208201905092915050565b600082825260208201905092915050565b600081905092915050565b600061503682615162565b915061504183615162565b9250827fffffffffffffffffffffffffffffffffffffffffffffffffffffffffffffffff038211156150765761507561528b565b5b828201905092915050565b600061508c82615162565b915061509783615162565b9250826150a7576150a66152ba565b5b828204905092915050565b60006150bd82615162565b91506150c883615162565b9250828210156150db576150da61528b565b5b828203905092915050565b60006150f182615142565b9050919050565b600061510382615142565b9050919050565b60008115159050919050565b60007fffffffff0000000000000000000000000000000000000000000000000000000082169050919050565b600073ffffffffffffffffffffffffffffffffffffffff82169050919050565b6000819050919050565b82818337600083830152505050565b60005b8381101561519957808201518184015260208101905061517e565b838111156151a8576000848401525b50505050565b600060028204905060018216806151c657607f821691505b602082108114156151da576151d96152e9565b5b50919050565b6151e982615347565b810181811067ffffffffffffffff8211171561520857615207615318565b5b80604052505050565b600061521c82615162565b91507fffffffffffffffffffffffffffffffffffffffffffffffffffffffffffffffff82141561524f5761524e61528b565b5b600182019050919050565b600061526582615162565b915061527083615162565b9250826152805761527f6152ba565b5b828206905092915050565b7f4e487b7100000000000000000000000000000000000000000000000000000000600052601160045260246000fd5b7f4e487b7100000000000000000000000000000000000000000000000000000000600052601260045260246000fd5b7f4e487b7100000000000000000000000000000000000000000000000000000000600052602260045260246000fd5b7f4e487b7100000000000000000000000000000000000000000000000000000000600052604160045260246000fd5b6000601f19601f8301169050919050565b7f436f756e7465723a2064656372656d656e74206f766572666c6f770000000000600082015250565b7f4552433732313a207472616e7366657220746f206e6f6e20455243373231526560008201527f63656976657220696d706c656d656e7465720000000000000000000000000000602082015250565b7f4552433732313a207472616e736665722066726f6d20696e636f72726563742060008201527f6f776e6572000000000000000000000000000000000000000000000000000000602082015250565b7f4552433732313a20746f6b656e20616c7265616479206d696e74656400000000600082015250565b7f4552433732313a207472616e7366657220746f20746865207a65726f2061646460008201527f7265737300000000000000000000000000000000000000000000000000000000602082015250565b7f4552433732313a20617070726f766520746f2063616c6c657200000000000000600082015250565b7f4552433732313a206f70657261746f7220717565727920666f72206e6f6e657860008201527f697374656e7420746f6b656e0000000000000000000000000000000000000000602082015250565b7f4552433732313a20617070726f76652063616c6c6572206973206e6f74206f7760008201527f6e6572206e6f7220617070726f76656420666f7220616c6c0000000000000000602082015250565b7f4552433732313a2062616c616e636520717565727920666f7220746865207a6560008201527f726f206164647265737300000000000000000000000000000000000000000000602082015250565b7f4552433732313a206f776e657220717565727920666f72206e6f6e657869737460008201527f656e7420746f6b656e0000000000000000000000000000000000000000000000602082015250565b7f45524337323155524953746f726167653a2055524920736574206f66206e6f6e60008201527f6578697374656e7420746f6b656e000000000000000000000000000000000000602082015250565b7f4552433732313a206d696e7420746f20746865207a65726f2061646472657373600082015250565b7f45524337323155524953746f726167653a2055524920717565727920666f722060008201527f6e6f6e6578697374656e7420746f6b656e000000000000000000000000000000602082015250565b7f4552433732313a20617070726f76656420717565727920666f72206e6f6e657860008201527f697374656e7420746f6b656e0000000000000000000000000000000000000000602082015250565b7f4552433732314d657461646174613a2055524920717565727920666f72206e6f60008201527f6e6578697374656e7420746f6b656e0000000000000000000000000000000000602082015250565b7f4552433732313a20617070726f76616c20746f2063757272656e74206f776e6560008201527f7200000000000000000000000000000000000000000000000000000000000000602082015250565b7f4552433732313a207472616e736665722063616c6c6572206973206e6f74206f60008201527f776e6572206e6f7220617070726f766564000000000000000000000000000000602082015250565b615808816150e6565b811461581357600080fd5b50565b61581f8161510a565b811461582a57600080fd5b50565b61583681615116565b811461584157600080fd5b50565b61584d81615162565b811461585857600080fd5b5056fea2646970667358221220bf6a8bcff02bf5999ac6b53d23ddd77789b708b502eba2b006e932ff2536d26364736f6c63430008040033",
  "devdoc": {
    "kind": "dev",
    "methods": {
      "approve(address,uint256)": {
        "details": "See {IERC721-approve}."
      },
      "balanceOf(address)": {
        "details": "See {IERC721-balanceOf}."
      },
      "getApproved(uint256)": {
        "details": "See {IERC721-getApproved}."
      },
      "isApprovedForAll(address,address)": {
        "details": "See {IERC721-isApprovedForAll}."
      },
      "name()": {
        "details": "See {IERC721Metadata-name}."
      },
      "ownerOf(uint256)": {
        "details": "See {IERC721-ownerOf}."
      },
      "safeTransferFrom(address,address,uint256)": {
        "details": "See {IERC721-safeTransferFrom}."
      },
      "safeTransferFrom(address,address,uint256,bytes)": {
        "details": "See {IERC721-safeTransferFrom}."
      },
      "setApprovalForAll(address,bool)": {
        "details": "See {IERC721-setApprovalForAll}."
      },
      "supportsInterface(bytes4)": {
        "details": "See {IERC165-supportsInterface}."
      },
      "symbol()": {
        "details": "See {IERC721Metadata-symbol}."
      },
      "tokenURI(uint256)": {
        "details": "See {IERC721Metadata-tokenURI}."
      },
      "transferFrom(address,address,uint256)": {
        "details": "See {IERC721-transferFrom}."
      }
    },
    "version": 1
  },
  "userdoc": {
    "kind": "user",
    "methods": {},
    "version": 1
  },
  "storageLayout": {
    "storage": [
      {
        "astId": 25,
        "contract": "contracts/NFTMarket.sol:NFTMarket",
        "label": "_name",
        "offset": 0,
        "slot": "0",
        "type": "t_string_storage"
      },
      {
        "astId": 27,
        "contract": "contracts/NFTMarket.sol:NFTMarket",
        "label": "_symbol",
        "offset": 0,
        "slot": "1",
        "type": "t_string_storage"
      },
      {
        "astId": 31,
        "contract": "contracts/NFTMarket.sol:NFTMarket",
        "label": "_owners",
        "offset": 0,
        "slot": "2",
        "type": "t_mapping(t_uint256,t_address)"
      },
      {
        "astId": 35,
        "contract": "contracts/NFTMarket.sol:NFTMarket",
        "label": "_balances",
        "offset": 0,
        "slot": "3",
        "type": "t_mapping(t_address,t_uint256)"
      },
      {
        "astId": 39,
        "contract": "contracts/NFTMarket.sol:NFTMarket",
        "label": "_tokenApprovals",
        "offset": 0,
        "slot": "4",
        "type": "t_mapping(t_uint256,t_address)"
      },
      {
        "astId": 45,
        "contract": "contracts/NFTMarket.sol:NFTMarket",
        "label": "_operatorApprovals",
        "offset": 0,
        "slot": "5",
        "type": "t_mapping(t_address,t_mapping(t_address,t_bool))"
      },
      {
        "astId": 1012,
        "contract": "contracts/NFTMarket.sol:NFTMarket",
        "label": "_tokenURIs",
        "offset": 0,
        "slot": "6",
        "type": "t_mapping(t_uint256,t_string_storage)"
      },
      {
        "astId": 1813,
        "contract": "contracts/NFTMarket.sol:NFTMarket",
        "label": "_tokenIds",
        "offset": 0,
        "slot": "7",
        "type": "t_struct(Counter)1477_storage"
      },
      {
        "astId": 1816,
        "contract": "contracts/NFTMarket.sol:NFTMarket",
        "label": "_itemsSold",
        "offset": 0,
        "slot": "8",
        "type": "t_struct(Counter)1477_storage"
      },
      {
        "astId": 1818,
        "contract": "contracts/NFTMarket.sol:NFTMarket",
        "label": "owner",
        "offset": 0,
        "slot": "9",
        "type": "t_address_payable"
      },
      {
        "astId": 1821,
        "contract": "contracts/NFTMarket.sol:NFTMarket",
        "label": "listingPrice",
        "offset": 0,
        "slot": "10",
        "type": "t_uint256"
      },
      {
        "astId": 1826,
        "contract": "contracts/NFTMarket.sol:NFTMarket",
        "label": "idToMarketItem",
        "offset": 0,
        "slot": "11",
        "type": "t_mapping(t_uint256,t_struct(MarketItem)1842_storage)"
      }
    ],
    "types": {
      "t_address": {
        "encoding": "inplace",
        "label": "address",
        "numberOfBytes": "20"
      },
      "t_address_payable": {
        "encoding": "inplace",
        "label": "address payable",
        "numberOfBytes": "20"
      },
      "t_array(t_address)dyn_storage": {
        "base": "t_address",
        "encoding": "dynamic_array",
        "label": "address[]",
        "numberOfBytes": "32"
      },
      "t_bool": {
        "encoding": "inplace",
        "label": "bool",
        "numberOfBytes": "1"
      },
      "t_mapping(t_address,t_bool)": {
        "encoding": "mapping",
        "key": "t_address",
        "label": "mapping(address => bool)",
        "numberOfBytes": "32",
        "value": "t_bool"
      },
      "t_mapping(t_address,t_mapping(t_address,t_bool))": {
        "encoding": "mapping",
        "key": "t_address",
        "label": "mapping(address => mapping(address => bool))",
        "numberOfBytes": "32",
        "value": "t_mapping(t_address,t_bool)"
      },
      "t_mapping(t_address,t_uint256)": {
        "encoding": "mapping",
        "key": "t_address",
        "label": "mapping(address => uint256)",
        "numberOfBytes": "32",
        "value": "t_uint256"
      },
      "t_mapping(t_uint256,t_address)": {
        "encoding": "mapping",
        "key": "t_uint256",
        "label": "mapping(uint256 => address)",
        "numberOfBytes": "32",
        "value": "t_address"
      },
      "t_mapping(t_uint256,t_string_storage)": {
        "encoding": "mapping",
        "key": "t_uint256",
        "label": "mapping(uint256 => string)",
        "numberOfBytes": "32",
        "value": "t_string_storage"
      },
      "t_mapping(t_uint256,t_struct(MarketItem)1842_storage)": {
        "encoding": "mapping",
        "key": "t_uint256",
        "label": "mapping(uint256 => struct NFTMarket.MarketItem)",
        "numberOfBytes": "32",
        "value": "t_struct(MarketItem)1842_storage"
      },
      "t_string_storage": {
        "encoding": "bytes",
        "label": "string",
        "numberOfBytes": "32"
      },
      "t_struct(Counter)1477_storage": {
        "encoding": "inplace",
        "label": "struct Counters.Counter",
        "members": [
          {
            "astId": 1476,
            "contract": "contracts/NFTMarket.sol:NFTMarket",
            "label": "_value",
            "offset": 0,
            "slot": "0",
            "type": "t_uint256"
          }
        ],
        "numberOfBytes": "32"
      },
      "t_struct(MarketItem)1842_storage": {
        "encoding": "inplace",
        "label": "struct NFTMarket.MarketItem",
        "members": [
          {
            "astId": 1828,
            "contract": "contracts/NFTMarket.sol:NFTMarket",
            "label": "tokenId",
            "offset": 0,
            "slot": "0",
            "type": "t_uint256"
          },
          {
            "astId": 1830,
            "contract": "contracts/NFTMarket.sol:NFTMarket",
            "label": "seller",
            "offset": 0,
            "slot": "1",
            "type": "t_address_payable"
          },
          {
            "astId": 1832,
            "contract": "contracts/NFTMarket.sol:NFTMarket",
            "label": "owner",
            "offset": 0,
            "slot": "2",
            "type": "t_address_payable"
          },
          {
            "astId": 1834,
            "contract": "contracts/NFTMarket.sol:NFTMarket",
            "label": "price",
            "offset": 0,
            "slot": "3",
            "type": "t_uint256"
          },
          {
            "astId": 1836,
            "contract": "contracts/NFTMarket.sol:NFTMarket",
            "label": "sold",
            "offset": 0,
            "slot": "4",
            "type": "t_bool"
          },
          {
            "astId": 1838,
            "contract": "contracts/NFTMarket.sol:NFTMarket",
            "label": "burned",
            "offset": 1,
            "slot": "4",
            "type": "t_bool"
          },
          {
            "astId": 1841,
            "contract": "contracts/NFTMarket.sol:NFTMarket",
            "label": "prevOwners",
            "offset": 0,
            "slot": "5",
            "type": "t_array(t_address)dyn_storage"
          }
        ],
        "numberOfBytes": "192"
      },
      "t_uint256": {
        "encoding": "inplace",
        "label": "uint256",
        "numberOfBytes": "32"
      }
    }
  }
}